{
  "abi": [
    {
      "inputs": [
        {
          "internalType": "contract IERC20",
          "name": "_rewardToken",
          "type": "address"
        }
      ],
      "stateMutability": "nonpayable",
      "type": "constructor"
    },
    {
      "anonymous": false,
      "inputs": [
        {
          "indexed": true,
          "internalType": "address",
          "name": "user",
          "type": "address"
        },
        {
          "indexed": true,
          "internalType": "uint256",
          "name": "pid",
          "type": "uint256"
        },
        {
          "indexed": false,
          "internalType": "uint256",
          "name": "amount",
          "type": "uint256"
        }
      ],
      "name": "Deposit",
      "type": "event"
    },
    {
      "anonymous": false,
      "inputs": [
        {
          "indexed": true,
          "internalType": "address",
          "name": "previousOwner",
          "type": "address"
        },
        {
          "indexed": true,
          "internalType": "address",
          "name": "newOwner",
          "type": "address"
        }
      ],
      "name": "OwnershipTransferred",
      "type": "event"
    },
    {
      "anonymous": false,
      "inputs": [
        {
          "indexed": true,
          "internalType": "address",
          "name": "user",
          "type": "address"
        },
        {
          "indexed": true,
          "internalType": "uint256",
          "name": "pid",
          "type": "uint256"
        },
        {
          "indexed": false,
          "internalType": "uint256",
          "name": "amount",
          "type": "uint256"
        }
      ],
      "name": "Withdraw",
      "type": "event"
    },
    {
      "inputs": [
        {
          "internalType": "contract IERC20",
          "name": "_lpToken",
          "type": "address"
        }
      ],
      "name": "add",
      "outputs": [],
      "stateMutability": "nonpayable",
      "type": "function"
    },
    {
      "inputs": [
        {
          "internalType": "uint256",
          "name": "_pid",
          "type": "uint256"
        },
        {
          "internalType": "uint256",
          "name": "_amount",
          "type": "uint256"
        }
      ],
      "name": "deposit",
      "outputs": [],
      "stateMutability": "nonpayable",
      "type": "function"
    },
    {
      "inputs": [],
      "name": "owner",
      "outputs": [
        {
          "internalType": "address",
          "name": "",
          "type": "address"
        }
      ],
      "stateMutability": "view",
      "type": "function"
    },
    {
      "inputs": [
        {
          "internalType": "uint256",
          "name": "_pid",
          "type": "uint256"
        },
        {
          "internalType": "address",
          "name": "_user",
          "type": "address"
        }
      ],
      "name": "pendingRewards",
      "outputs": [
        {
          "internalType": "uint256",
          "name": "amount",
          "type": "uint256"
        }
      ],
      "stateMutability": "view",
      "type": "function"
    },
    {
      "inputs": [
        {
          "internalType": "uint256",
          "name": "",
          "type": "uint256"
        }
      ],
      "name": "poolInfo",
      "outputs": [
        {
          "internalType": "contract IERC20",
          "name": "lpToken",
          "type": "address"
        },
        {
          "internalType": "uint256",
          "name": "lastRewardBlock",
          "type": "uint256"
        },
        {
          "internalType": "uint256",
          "name": "distributeTill",
          "type": "uint256"
        },
        {
          "internalType": "uint256",
          "name": "distributionAmountLeft",
          "type": "uint256"
        },
        {
          "internalType": "uint256",
          "name": "arps",
          "type": "uint256"
        },
        {
          "internalType": "uint256",
          "name": "totalLpSupply",
          "type": "uint256"
        }
      ],
      "stateMutability": "view",
      "type": "function"
    },
    {
      "inputs": [],
      "name": "poolNumber",
      "outputs": [
        {
          "internalType": "uint256",
          "name": "",
          "type": "uint256"
        }
      ],
      "stateMutability": "view",
      "type": "function"
    },
    {
      "inputs": [],
      "name": "renounceOwnership",
      "outputs": [],
      "stateMutability": "nonpayable",
      "type": "function"
    },
    {
      "inputs": [],
      "name": "rewardToken",
      "outputs": [
        {
          "internalType": "contract IERC20",
          "name": "",
          "type": "address"
        }
      ],
      "stateMutability": "view",
      "type": "function"
    },
    {
      "inputs": [
        {
          "internalType": "uint256",
          "name": "_pid",
          "type": "uint256"
        },
        {
          "internalType": "uint256",
          "name": "_amount",
          "type": "uint256"
        },
        {
          "internalType": "uint256",
          "name": "_distributionTime",
          "type": "uint256"
        }
      ],
      "name": "setDistribution",
      "outputs": [],
      "stateMutability": "nonpayable",
      "type": "function"
    },
    {
      "inputs": [
        {
          "internalType": "address",
          "name": "newOwner",
          "type": "address"
        }
      ],
      "name": "transferOwnership",
      "outputs": [],
      "stateMutability": "nonpayable",
      "type": "function"
    },
    {
      "inputs": [
        {
          "internalType": "uint256",
          "name": "_pid",
          "type": "uint256"
        }
      ],
      "name": "updatePool",
      "outputs": [],
      "stateMutability": "nonpayable",
      "type": "function"
    },
    {
      "inputs": [
        {
          "internalType": "uint256",
          "name": "",
          "type": "uint256"
        },
        {
          "internalType": "address",
          "name": "",
          "type": "address"
        }
      ],
      "name": "userInfo",
      "outputs": [
        {
          "internalType": "uint256",
          "name": "amount",
          "type": "uint256"
        },
        {
          "internalType": "uint256",
          "name": "rewardDebt",
          "type": "uint256"
        }
      ],
      "stateMutability": "view",
      "type": "function"
    },
    {
      "inputs": [
        {
          "internalType": "uint256",
          "name": "_pid",
          "type": "uint256"
        },
        {
          "internalType": "uint256",
          "name": "_amount",
          "type": "uint256"
        }
      ],
      "name": "withdraw",
      "outputs": [],
      "stateMutability": "nonpayable",
      "type": "function"
    }
  ],
  "bytecode": {
    "object": "0x608060405234801561001057600080fd5b5060405161106238038061106283398101604081905261002f916100ad565b6100383361005d565b600180546001600160a01b0319166001600160a01b03929092169190911790556100dd565b600080546001600160a01b038381166001600160a01b0319831681178455604051919092169283917f8be0079c531659141344cd1fd0a4f28419497f9722a3daafe3b4186f6b6457e09190a35050565b6000602082840312156100bf57600080fd5b81516001600160a01b03811681146100d657600080fd5b9392505050565b610f76806100ec6000396000f3fe608060405234801561001057600080fd5b50600436106100df5760003560e01c806387dad95d1161008c578063d18df53c11610066578063d18df53c1461027c578063e2bbb1581461028f578063f2fde38b146102a2578063f7c618c1146102b557600080fd5b806387dad95d146101df5780638da5cb5b146101f657806393f1a40b1461023557600080fd5b806351eb05a6116100bd57806351eb05a6146101b15780636f343052146101c4578063715018a6146101d757600080fd5b80630a3b0a4f146100e45780631526fe27146100f9578063441a3e701461019e575b600080fd5b6100f76100f2366004610dbd565b6102d5565b005b610155610107366004610dda565b600260208190526000918252604090912080546001820154928201546003830154600484015460059094015473ffffffffffffffffffffffffffffffffffffffff9093169493919290919086565b6040805173ffffffffffffffffffffffffffffffffffffffff90971687526020870195909552938501929092526060840152608083015260a082015260c0015b60405180910390f35b6100f76101ac366004610df3565b6103a7565b6100f76101bf366004610dda565b610655565b6100f76101d2366004610e15565b610721565b6100f761081c565b6101e860045481565b604051908152602001610195565b60005473ffffffffffffffffffffffffffffffffffffffff165b60405173ffffffffffffffffffffffffffffffffffffffff9091168152602001610195565b610267610243366004610e41565b60036020908152600092835260408084209091529082529020805460019091015482565b60408051928352602083019190915201610195565b6101e861028a366004610e41565b610830565b6100f761029d366004610df3565b61094e565b6100f76102b0366004610dbd565b610b9a565b6001546102109073ffffffffffffffffffffffffffffffffffffffff1681565b6102dd610c51565b6040805160c08101825273ffffffffffffffffffffffffffffffffffffffff83811682524360208084018281528486019283526000606086018181526080870182815260a08801838152600480548552600296879052998420985189547fffffffffffffffffffffffff000000000000000000000000000000000000000016981697909717885592516001808901919091559451938701939093559151600386015551848601559151600590930192909255825491929161039f908490610ea0565b909155505050565b6000828152600260209081526040808320600383528184203385529092529091208054831115610438576040517f08c379a000000000000000000000000000000000000000000000000000000000815260206004820152601260248201527f77697468647261773a206e6f7420676f6f64000000000000000000000000000060448201526064015b60405180910390fd5b61044184610655565b6000816001015464e8d4a51000846004015484600001546104629190610eb9565b61046c9190610ed0565b6104769190610f0b565b9050801561051b576001546040517fa9059cbb0000000000000000000000000000000000000000000000000000000081523360048201526024810183905273ffffffffffffffffffffffffffffffffffffffff9091169063a9059cbb906044016020604051808303816000875af11580156104f5573d6000803e3d6000fd5b505050506040513d601f19601f820116820180604052508101906105199190610f1e565b505b83156105f157838260000160008282546105359190610f0b565b92505081905550838360050160008282546105509190610f0b565b909155505082546040517fa9059cbb0000000000000000000000000000000000000000000000000000000081523360048201526024810186905273ffffffffffffffffffffffffffffffffffffffff9091169063a9059cbb906044016020604051808303816000875af11580156105cb573d6000803e3d6000fd5b505050506040513d601f19601f820116820180604052508101906105ef9190610f1e565b505b6004830154825464e8d4a510009161060891610eb9565b6106129190610ed0565b6001830155604051848152859033907ff279e6a1f5e320cca91135676d9cb6e44ca8a08c0b88342bcdb1144f6511b5689060200160405180910390a35050505050565b600081815260026020819052604090912060018101549181015490911080156106815750600581015415155b15610717576040805160c081018252825473ffffffffffffffffffffffffffffffffffffffff168152600183015460208201526002830154918101919091526003820154606082015260048201546080820152600582015460a08201526000906106eb9043610cd2565b90508160050154816106fd9190610ed0565b8260040160008282546107109190610ea0565b9091555050505b4360019091015550565b610729610c51565b600083815260026020526040902061074084610655565b6001546040517f23b872dd0000000000000000000000000000000000000000000000000000000081523360048201523060248201526044810185905273ffffffffffffffffffffffffffffffffffffffff909116906323b872dd906064016020604051808303816000875af11580156107bd573d6000803e3d6000fd5b505050506040513d601f19601f820116820180604052508101906107e19190610f1e565b50828160030160008282546107f69190610ea0565b92505081905550818160020160008282546108119190610ea0565b909155505050505050565b610824610c51565b61082e6000610d26565b565b6000828152600260208181526040808420815160c081018352815473ffffffffffffffffffffffffffffffffffffffff90811682526001808401548387019081529684015483860190815260038086015460608601526004860154608086015260059095015460a08501528a8952938652848820918916885290855283872084518086019095528054855201549383019390935292519251919290911180156108dc575060a082015115155b156109155760006108ed8343610cd2565b90508260a00151816108ff9190610ed0565b836080018181516109109190610ea0565b905250505b60208101516080830151825164e8d4a510009161093191610eb9565b61093b9190610ed0565b6109459190610f0b565b95945050505050565b60008281526002602090815260408083206003835281842033855290925290912061097884610655565b805415610a5b576000816001015464e8d4a51000846004015484600001546109a09190610eb9565b6109aa9190610ed0565b6109b49190610f0b565b90508015610a59576001546040517fa9059cbb0000000000000000000000000000000000000000000000000000000081523360048201526024810183905273ffffffffffffffffffffffffffffffffffffffff9091169063a9059cbb906044016020604051808303816000875af1158015610a33573d6000803e3d6000fd5b505050506040513d601f19601f82011682018060405250810190610a579190610f1e565b505b505b8215610b375781546040517f23b872dd0000000000000000000000000000000000000000000000000000000081523360048201523060248201526044810185905273ffffffffffffffffffffffffffffffffffffffff909116906323b872dd906064016020604051808303816000875af1158015610add573d6000803e3d6000fd5b505050506040513d601f19601f82011682018060405250810190610b019190610f1e565b5082816000016000828254610b169190610ea0565b9250508190555082826005016000828254610b319190610ea0565b90915550505b6004820154815464e8d4a5100091610b4e91610eb9565b610b589190610ed0565b6001820155604051838152849033907f90890809c654f11d6e72a28fa60149770a0d11ec6c92319d6ceb2bb0a4ea1a159060200160405180910390a350505050565b610ba2610c51565b73ffffffffffffffffffffffffffffffffffffffff8116610c45576040517f08c379a000000000000000000000000000000000000000000000000000000000815260206004820152602660248201527f4f776e61626c653a206e6577206f776e657220697320746865207a65726f206160448201527f6464726573730000000000000000000000000000000000000000000000000000606482015260840161042f565b610c4e81610d26565b50565b60005473ffffffffffffffffffffffffffffffffffffffff16331461082e576040517f08c379a000000000000000000000000000000000000000000000000000000000815260206004820181905260248201527f4f776e61626c653a2063616c6c6572206973206e6f7420746865206f776e6572604482015260640161042f565b600082602001518360400151610ce89190610f0b565b60608401516020850151610cfc9085610f0b565b610d0b9064e8d4a51000610eb9565b610d159190610eb9565b610d1f9190610ed0565b9392505050565b6000805473ffffffffffffffffffffffffffffffffffffffff8381167fffffffffffffffffffffffff0000000000000000000000000000000000000000831681178455604051919092169283917f8be0079c531659141344cd1fd0a4f28419497f9722a3daafe3b4186f6b6457e09190a35050565b73ffffffffffffffffffffffffffffffffffffffff81168114610c4e57600080fd5b600060208284031215610dcf57600080fd5b8135610d1f81610d9b565b600060208284031215610dec57600080fd5b5035919050565b60008060408385031215610e0657600080fd5b50508035926020909101359150565b600080600060608486031215610e2a57600080fd5b505081359360208301359350604090920135919050565b60008060408385031215610e5457600080fd5b823591506020830135610e6681610d9b565b809150509250929050565b7f4e487b7100000000000000000000000000000000000000000000000000000000600052601160045260246000fd5b80820180821115610eb357610eb3610e71565b92915050565b8082028115828204841417610eb357610eb3610e71565b600082610f06577f4e487b7100000000000000000000000000000000000000000000000000000000600052601260045260246000fd5b500490565b81810381811115610eb357610eb3610e71565b600060208284031215610f3057600080fd5b81518015158114610d1f57600080fdfea26469706673582212203ccf1b59ec7885becb26f1de50c8655b5f9bc208f58fbb54ec716394a5ef91bd64736f6c63430008150033",
    "linkReferences": {}
  },
  "methodIdentifiers": {
    "add(address)": "0a3b0a4f",
    "deposit(uint256,uint256)": "e2bbb158",
    "owner()": "8da5cb5b",
    "pendingRewards(uint256,address)": "d18df53c",
    "poolInfo(uint256)": "1526fe27",
    "poolNumber()": "87dad95d",
    "renounceOwnership()": "715018a6",
    "rewardToken()": "f7c618c1",
    "setDistribution(uint256,uint256,uint256)": "6f343052",
    "transferOwnership(address)": "f2fde38b",
    "updatePool(uint256)": "51eb05a6",
    "userInfo(uint256,address)": "93f1a40b",
    "withdraw(uint256,uint256)": "441a3e70"
  },
  "id": 50
}