{
  "abi": [
    {
      "inputs": [],
      "stateMutability": "nonpayable",
      "type": "constructor"
    },
    {
      "inputs": [
        {
          "internalType": "uint256",
          "name": "x",
          "type": "uint256"
        },
        {
          "internalType": "uint256",
          "name": "y",
          "type": "uint256"
        }
      ],
      "name": "PRBMath_MulDiv18_Overflow",
      "type": "error"
    },
    {
      "inputs": [
        {
          "internalType": "uint256",
          "name": "x",
          "type": "uint256"
        },
        {
          "internalType": "uint256",
          "name": "y",
          "type": "uint256"
        },
        {
          "internalType": "uint256",
          "name": "denominator",
          "type": "uint256"
        }
      ],
      "name": "PRBMath_MulDiv_Overflow",
      "type": "error"
    },
    {
      "inputs": [],
      "name": "PRBMath_SD59x18_Abs_MinSD59x18",
      "type": "error"
    },
    {
      "inputs": [],
      "name": "PRBMath_SD59x18_Div_InputTooSmall",
      "type": "error"
    },
    {
      "inputs": [
        {
          "internalType": "SD59x18",
          "name": "x",
          "type": "int256"
        },
        {
          "internalType": "SD59x18",
          "name": "y",
          "type": "int256"
        }
      ],
      "name": "PRBMath_SD59x18_Div_Overflow",
      "type": "error"
    },
    {
      "inputs": [],
      "name": "PRBMath_SD59x18_Mul_InputTooSmall",
      "type": "error"
    },
    {
      "inputs": [
        {
          "internalType": "SD59x18",
          "name": "x",
          "type": "int256"
        },
        {
          "internalType": "SD59x18",
          "name": "y",
          "type": "int256"
        }
      ],
      "name": "PRBMath_SD59x18_Mul_Overflow",
      "type": "error"
    },
    {
      "inputs": [
        {
          "internalType": "SD59x18",
          "name": "x",
          "type": "int256"
        },
        {
          "internalType": "uint256",
          "name": "y",
          "type": "uint256"
        }
      ],
      "name": "PRBMath_SD59x18_Powu_Overflow",
      "type": "error"
    },
    {
      "inputs": [
        {
          "internalType": "SD59x18",
          "name": "x",
          "type": "int256"
        }
      ],
      "name": "PRBMath_SD59x18_Sqrt_NegativeInput",
      "type": "error"
    },
    {
      "inputs": [
        {
          "internalType": "SD59x18",
          "name": "x",
          "type": "int256"
        }
      ],
      "name": "PRBMath_SD59x18_Sqrt_Overflow",
      "type": "error"
    },
    {
      "inputs": [
        {
          "internalType": "address",
          "name": "_pool",
          "type": "address"
        },
        {
          "internalType": "address",
          "name": "_asset",
          "type": "address"
        },
        {
          "internalType": "UD60x18",
          "name": "_amountOut",
          "type": "uint256"
        },
        {
          "internalType": "UD60x18",
          "name": "_sharesInMax",
          "type": "uint256"
        },
        {
          "internalType": "address",
          "name": "_to",
          "type": "address"
        },
        {
          "internalType": "uint256",
          "name": "deadline",
          "type": "uint256"
        }
      ],
      "name": "burnWithAmountOut",
      "outputs": [],
      "stateMutability": "nonpayable",
      "type": "function"
    },
    {
      "inputs": [
        {
          "internalType": "address",
          "name": "_pool",
          "type": "address"
        },
        {
          "internalType": "address",
          "name": "_asset",
          "type": "address"
        },
        {
          "internalType": "UD60x18",
          "name": "_sharesIn",
          "type": "uint256"
        },
        {
          "internalType": "UD60x18",
          "name": "_amountOutMin",
          "type": "uint256"
        },
        {
          "internalType": "address",
          "name": "_to",
          "type": "address"
        },
        {
          "internalType": "uint256",
          "name": "deadline",
          "type": "uint256"
        }
      ],
      "name": "burnWithSharesIn",
      "outputs": [],
      "stateMutability": "nonpayable",
      "type": "function"
    },
    {
      "inputs": [
        {
          "internalType": "address",
          "name": "_pool",
          "type": "address"
        },
        {
          "internalType": "address",
          "name": "_asset",
          "type": "address"
        },
        {
          "internalType": "UD60x18",
          "name": "_sharesIn",
          "type": "uint256"
        }
      ],
      "name": "estimateBurnAmountOut",
      "outputs": [
        {
          "internalType": "UD60x18",
          "name": "amountOut",
          "type": "uint256"
        },
        {
          "internalType": "UD60x18",
          "name": "fee",
          "type": "uint256"
        },
        {
          "internalType": "UD60x18",
          "name": "cashbackOut",
          "type": "uint256"
        }
      ],
      "stateMutability": "view",
      "type": "function"
    },
    {
      "inputs": [
        {
          "internalType": "address",
          "name": "_pool",
          "type": "address"
        },
        {
          "internalType": "address",
          "name": "_asset",
          "type": "address"
        },
        {
          "internalType": "UD60x18",
          "name": "_amountOut",
          "type": "uint256"
        }
      ],
      "name": "estimateBurnSharesIn",
      "outputs": [
        {
          "internalType": "UD60x18",
          "name": "sharesIn",
          "type": "uint256"
        },
        {
          "internalType": "UD60x18",
          "name": "fee",
          "type": "uint256"
        },
        {
          "internalType": "UD60x18",
          "name": "cashbackOut",
          "type": "uint256"
        }
      ],
      "stateMutability": "view",
      "type": "function"
    },
    {
      "inputs": [
        {
          "internalType": "address",
          "name": "_pool",
          "type": "address"
        },
        {
          "internalType": "address",
          "name": "_asset",
          "type": "address"
        },
        {
          "internalType": "UD60x18",
          "name": "_sharesOut",
          "type": "uint256"
        }
      ],
      "name": "estimateMintAmountIn",
      "outputs": [
        {
          "internalType": "UD60x18",
          "name": "amountIn",
          "type": "uint256"
        },
        {
          "internalType": "UD60x18",
          "name": "fee",
          "type": "uint256"
        },
        {
          "internalType": "UD60x18",
          "name": "cashbackIn",
          "type": "uint256"
        }
      ],
      "stateMutability": "view",
      "type": "function"
    },
    {
      "inputs": [
        {
          "internalType": "address",
          "name": "_pool",
          "type": "address"
        },
        {
          "internalType": "address",
          "name": "_asset",
          "type": "address"
        },
        {
          "internalType": "UD60x18",
          "name": "_amountIn",
          "type": "uint256"
        }
      ],
      "name": "estimateMintSharesOut",
      "outputs": [
        {
          "internalType": "UD60x18",
          "name": "sharesOut",
          "type": "uint256"
        },
        {
          "internalType": "UD60x18",
          "name": "fee",
          "type": "uint256"
        },
        {
          "internalType": "UD60x18",
          "name": "cashbackIn",
          "type": "uint256"
        }
      ],
      "stateMutability": "view",
      "type": "function"
    },
    {
      "inputs": [
        {
          "internalType": "address",
          "name": "_pool",
          "type": "address"
        },
        {
          "internalType": "address",
          "name": "_assetIn",
          "type": "address"
        },
        {
          "internalType": "address",
          "name": "_assetOut",
          "type": "address"
        },
        {
          "internalType": "UD60x18",
          "name": "_amountOut",
          "type": "uint256"
        }
      ],
      "name": "estimateSwapAmountIn",
      "outputs": [
        {
          "internalType": "UD60x18",
          "name": "shares",
          "type": "uint256"
        },
        {
          "internalType": "UD60x18",
          "name": "amountIn",
          "type": "uint256"
        },
        {
          "internalType": "UD60x18",
          "name": "fee",
          "type": "uint256"
        },
        {
          "internalType": "UD60x18",
          "name": "cashbackIn",
          "type": "uint256"
        },
        {
          "internalType": "UD60x18",
          "name": "cashbackOut",
          "type": "uint256"
        }
      ],
      "stateMutability": "view",
      "type": "function"
    },
    {
      "inputs": [
        {
          "internalType": "address",
          "name": "_pool",
          "type": "address"
        },
        {
          "internalType": "address",
          "name": "_assetIn",
          "type": "address"
        },
        {
          "internalType": "address",
          "name": "_assetOut",
          "type": "address"
        },
        {
          "internalType": "UD60x18",
          "name": "_amountIn",
          "type": "uint256"
        }
      ],
      "name": "estimateSwapAmountOut",
      "outputs": [
        {
          "internalType": "UD60x18",
          "name": "shares",
          "type": "uint256"
        },
        {
          "internalType": "UD60x18",
          "name": "amountOut",
          "type": "uint256"
        },
        {
          "internalType": "UD60x18",
          "name": "fee",
          "type": "uint256"
        },
        {
          "internalType": "UD60x18",
          "name": "cashbackIn",
          "type": "uint256"
        },
        {
          "internalType": "UD60x18",
          "name": "cashbackOut",
          "type": "uint256"
        }
      ],
      "stateMutability": "view",
      "type": "function"
    },
    {
      "inputs": [
        {
          "internalType": "address",
          "name": "_pool",
          "type": "address"
        },
        {
          "internalType": "address",
          "name": "_asset",
          "type": "address"
        },
        {
          "internalType": "UD60x18",
          "name": "_amountIn",
          "type": "uint256"
        },
        {
          "internalType": "UD60x18",
          "name": "_sharesOutMin",
          "type": "uint256"
        },
        {
          "internalType": "address",
          "name": "_to",
          "type": "address"
        },
        {
          "internalType": "uint256",
          "name": "deadline",
          "type": "uint256"
        }
      ],
      "name": "mintWithAmountIn",
      "outputs": [],
      "stateMutability": "nonpayable",
      "type": "function"
    },
    {
      "inputs": [
        {
          "internalType": "address",
          "name": "_pool",
          "type": "address"
        },
        {
          "internalType": "address",
          "name": "_asset",
          "type": "address"
        },
        {
          "internalType": "UD60x18",
          "name": "_sharesOut",
          "type": "uint256"
        },
        {
          "internalType": "uint256",
          "name": "_amountInMax",
          "type": "uint256"
        },
        {
          "internalType": "address",
          "name": "_to",
          "type": "address"
        },
        {
          "internalType": "uint256",
          "name": "deadline",
          "type": "uint256"
        }
      ],
      "name": "mintWithSharesOut",
      "outputs": [],
      "stateMutability": "nonpayable",
      "type": "function"
    },
    {
      "inputs": [
        {
          "internalType": "address",
          "name": "_pool",
          "type": "address"
        },
        {
          "internalType": "address",
          "name": "_assetIn",
          "type": "address"
        },
        {
          "internalType": "address",
          "name": "_assetOut",
          "type": "address"
        },
        {
          "internalType": "UD60x18",
          "name": "_amountInMax",
          "type": "uint256"
        },
        {
          "internalType": "UD60x18",
          "name": "_amountOutMin",
          "type": "uint256"
        },
        {
          "internalType": "UD60x18",
          "name": "_shares",
          "type": "uint256"
        },
        {
          "internalType": "address",
          "name": "_to",
          "type": "address"
        },
        {
          "internalType": "uint256",
          "name": "deadline",
          "type": "uint256"
        }
      ],
      "name": "swap",
      "outputs": [],
      "stateMutability": "nonpayable",
      "type": "function"
    },
    {
      "inputs": [
        {
          "internalType": "address",
          "name": "_pool",
          "type": "address"
        },
        {
          "internalType": "address",
          "name": "_assetIn",
          "type": "address"
        },
        {
          "internalType": "address",
          "name": "_assetOut",
          "type": "address"
        },
        {
          "internalType": "UD60x18",
          "name": "_amountIn",
          "type": "uint256"
        },
        {
          "internalType": "UD60x18",
          "name": "_amountOutMin",
          "type": "uint256"
        },
        {
          "internalType": "address",
          "name": "_to",
          "type": "address"
        },
        {
          "internalType": "uint256",
          "name": "deadline",
          "type": "uint256"
        }
      ],
      "name": "swapWithAmountIn",
      "outputs": [],
      "stateMutability": "nonpayable",
      "type": "function"
    },
    {
      "inputs": [
        {
          "internalType": "address",
          "name": "_pool",
          "type": "address"
        },
        {
          "internalType": "address",
          "name": "_assetIn",
          "type": "address"
        },
        {
          "internalType": "address",
          "name": "_assetOut",
          "type": "address"
        },
        {
          "internalType": "UD60x18",
          "name": "_amountOut",
          "type": "uint256"
        },
        {
          "internalType": "UD60x18",
          "name": "_amountInMax",
          "type": "uint256"
        },
        {
          "internalType": "address",
          "name": "_to",
          "type": "address"
        },
        {
          "internalType": "uint256",
          "name": "deadline",
          "type": "uint256"
        }
      ],
      "name": "swapWithAmountOut",
      "outputs": [],
      "stateMutability": "nonpayable",
      "type": "function"
    }
  ],
  "bytecode": {
    "object": "0x608060405234801561001057600080fd5b50614575806100206000396000f3fe608060405234801561001057600080fd5b50600436106100df5760003560e01c806389cbac181161008c578063c274fc6611610066578063c274fc66146101d9578063e0470764146101ec578063e11289b2146101ff578063f788664a1461021257600080fd5b806389cbac18146101a0578063aec992c5146101b3578063bb668a78146101c657600080fd5b80634ec5b842116100bd5780634ec5b84214610167578063608c57551461017a5780637284c1a21461018d57600080fd5b80630b315839146100e45780630f5767f0146100f9578063138607791461012c575b600080fd5b6100f76100f2366004613ffc565b610225565b005b61010c61010736600461405b565b610645565b604080519384526020840192909252908201526060015b60405180910390f35b61013f61013a366004614097565b6107cb565b604080519586526020860194909452928401919091526060830152608082015260a001610123565b61010c61017536600461405b565b6109f9565b6100f76101883660046140e2565b610b55565b6100f761019b366004613ffc565b610f54565b61010c6101ae36600461405b565b61120f565b6100f76101c13660046140e2565b6113b8565b6100f76101d4366004613ffc565b61174f565b6100f76101e7366004613ffc565b6118f0565b61013f6101fa366004614097565b611b28565b61010c61020d36600461405b565b611d3e565b6100f7610220366004614153565b611ee3565b804281101561027b5760405162461bcd60e51b815260206004820152601960248201527f4d756c7469706f6f6c20526f757465723a20455850495245440000000000000060448201526064015b60405180910390fd5b6040517f742978da00000000000000000000000000000000000000000000000000000000815273ffffffffffffffffffffffffffffffffffffffff8781166004830152600091610318918a169063742978da906024015b60a060405180830381865afa1580156102ef573d6000803e3d6000fd5b505050506040513d601f19601f8201168201806040525081019061031391906141ce565b61204a565b905060006103938973ffffffffffffffffffffffffffffffffffffffff16636ddca2106040518163ffffffff1660e01b815260040160e060405180830381865afa15801561036a573d6000803e3d6000fd5b505050506040513d601f19601f8201168201806040525081019061038e9190614265565b6120ad565b9050600061040c8a73ffffffffffffffffffffffffffffffffffffffff166318160ddd6040518163ffffffff1660e01b8152600401602060405180830381865afa1580156103e5573d6000803e3d6000fd5b505050506040513d601f19601f820116820180604052508101906104099190614310565b90565b8251909150600061041e84868c612128565b9050600061044261043c610436848960200151612416565b86612416565b84612425565b9050808a11156104ba5760405162461bcd60e51b815260206004820152602260248201527f4d756c7469706f6f6c20526f757465723a20736c65657061676520657865656460448201527f65640000000000000000000000000000000000000000000000000000000000006064820152608401610272565b73ffffffffffffffffffffffffffffffffffffffff8c166323b872dd338f8e6040517fffffffff0000000000000000000000000000000000000000000000000000000060e086901b16815273ffffffffffffffffffffffffffffffffffffffff938416600482015292909116602483015260448201526064016020604051808303816000875af1158015610552573d6000803e3d6000fd5b505050506040513d601f19601f820116820180604052508101906105769190614329565b5073ffffffffffffffffffffffffffffffffffffffff8d16630d4d15138d835b6040517fffffffff0000000000000000000000000000000000000000000000000000000060e085901b16815273ffffffffffffffffffffffffffffffffffffffff92831660048201526024810191909152908c16604482015260640160408051808303816000875af1158015610610573d6000803e3d6000fd5b505050506040513d601f19601f82011682018060405250810190610634919061434b565b505050505050505050505050505050565b6040517f742978da00000000000000000000000000000000000000000000000000000000815273ffffffffffffffffffffffffffffffffffffffff83811660048301526000918291829182916106a7919089169063742978da906024016102d2565b905060006106f98873ffffffffffffffffffffffffffffffffffffffff16633429d5226040518163ffffffff1660e01b815260040160e060405180830381865afa15801561036a573d6000803e3d6000fd5b9050600061074b8973ffffffffffffffffffffffffffffffffffffffff166318160ddd6040518163ffffffff1660e01b8152600401602060405180830381865afa1580156103e5573d6000803e3d6000fd5b8251909150600061076c61043c6107628b85612416565b8760200151612425565b905061077984868361243d565b97508360a001519550600061079861043c6104368b8960200151612416565b90506107ba6107a78b83612425565b670de0b6b3a76400006126df565b6126df565b975050505050505093509350939050565b60008060008060008061082c8a73ffffffffffffffffffffffffffffffffffffffff1663742978da8b6040518263ffffffff1660e01b81526004016102d2919073ffffffffffffffffffffffffffffffffffffffff91909116815260200190565b6040517f742978da00000000000000000000000000000000000000000000000000000000815273ffffffffffffffffffffffffffffffffffffffff8a8116600483015291925060009161088b91908d169063742978da906024016102d2565b905060006108dd8c73ffffffffffffffffffffffffffffffffffffffff1663dd68d8db6040518163ffffffff1660e01b815260040160e060405180830381865afa15801561036a573d6000803e3d6000fd5b9050600061092f8d73ffffffffffffffffffffffffffffffffffffffff166318160ddd6040518163ffffffff1660e01b8152600401602060405180830381865afa1580156103e5573d6000803e3d6000fd5b8251909150600061094184868e6126ee565b60a08501519750905060008460a001818152505061097561096f610969838860200151612416565b85612416565b83612425565b9a5060006109a661099761098d8e8860000151612416565b8960200151612425565b6109a1868f6126df565b612425565b90506109b3858883612a7b565b9a508460a00151985060008d905060006109d461098d8e8b60200151612416565b90506109e36107a78284612425565b9b50505050505050505050945094509450945094565b6040517f742978da00000000000000000000000000000000000000000000000000000000815273ffffffffffffffffffffffffffffffffffffffff8381166004830152600091829182918291610a5b919089169063742978da906024016102d2565b90506000610aad8873ffffffffffffffffffffffffffffffffffffffff16633429d5226040518163ffffffff1660e01b815260040160e060405180830381865afa15801561036a573d6000803e3d6000fd5b90506000610aff8973ffffffffffffffffffffffffffffffffffffffff166318160ddd6040518163ffffffff1660e01b8152600401602060405180830381865afa1580156103e5573d6000803e3d6000fd5b82519091506000610b1184868b6126ee565b9050610b2761096f610969838860200151612416565b97508360a0015195506000610b4661043c6104368c8960200151612416565b90506107ba6107a78a83612425565b8042811015610ba65760405162461bcd60e51b815260206004820152601960248201527f4d756c7469706f6f6c20526f757465723a2045585049524544000000000000006044820152606401610272565b6040517f742978da00000000000000000000000000000000000000000000000000000000815273ffffffffffffffffffffffffffffffffffffffff88811660048301526000918291610c0491908c169063742978da906024016102d2565b90506000610c568b73ffffffffffffffffffffffffffffffffffffffff16636ddca2106040518163ffffffff1660e01b815260040160e060405180830381865afa15801561036a573d6000803e3d6000fd5b90506000610ca88c73ffffffffffffffffffffffffffffffffffffffff166318160ddd6040518163ffffffff1660e01b8152600401602060405180830381865afa1580156103e5573d6000803e3d6000fd5b82519091506000610cba84868d612128565b9050610cd061096f610969838860200151612416565b955050505050508773ffffffffffffffffffffffffffffffffffffffff166323b872dd338b610cfc8a90565b6040517fffffffff0000000000000000000000000000000000000000000000000000000060e086901b16815273ffffffffffffffffffffffffffffffffffffffff938416600482015292909116602483015260448201526064016020604051808303816000875af1158015610d75573d6000803e3d6000fd5b505050506040513d601f19601f82011682018060405250810190610d999190614329565b506040517f6e81221c00000000000000000000000000000000000000000000000000000000815273ffffffffffffffffffffffffffffffffffffffff8981166004830152888116602483015260448201839052858116606483015260009182918c1690636e81221c906084015b6080604051808303816000875af1158015610e25573d6000803e3d6000fd5b505050506040513d601f19601f82011682018060405250810190610e49919061436f565b505091509150610e5f610e598290565b88111590565b610ed15760405162461bcd60e51b815260206004820152602260248201527f4d756c7469706f6f6c20526f757465723a20736c65657061676520657865656460448201527f65640000000000000000000000000000000000000000000000000000000000006064820152608401610272565b81881015610f475760405162461bcd60e51b815260206004820152602260248201527f4d756c7469706f6f6c20526f757465723a20736c65657061676520657865656460448201527f65640000000000000000000000000000000000000000000000000000000000006064820152608401610272565b5050505050505050505050565b8042811015610fa55760405162461bcd60e51b815260206004820152601960248201527f4d756c7469706f6f6c20526f757465723a2045585049524544000000000000006044820152606401610272565b6040517f742978da00000000000000000000000000000000000000000000000000000000815273ffffffffffffffffffffffffffffffffffffffff8781166004830152600091611000918a169063742978da906024016102d2565b905060006110528973ffffffffffffffffffffffffffffffffffffffff16633429d5226040518163ffffffff1660e01b815260040160e060405180830381865afa15801561036a573d6000803e3d6000fd5b905060006110a48a73ffffffffffffffffffffffffffffffffffffffff166318160ddd6040518163ffffffff1660e01b8152600401602060405180830381865afa1580156103e5573d6000803e3d6000fd5b825190915060006110b684868c6126ee565b905060006110ce61043c610436848960200151612416565b9050808a10156111465760405162461bcd60e51b815260206004820152602260248201527f4d756c7469706f6f6c20526f757465723a20736c65657061676520657865656460448201527f65640000000000000000000000000000000000000000000000000000000000006064820152608401610272565b604080517f23b872dd00000000000000000000000000000000000000000000000000000000815233600482015273ffffffffffffffffffffffffffffffffffffffff8f16602482018190526044820184905291516323b872dd9160648082019260209290919082900301816000875af11580156111c7573d6000803e3d6000fd5b505050506040513d601f19601f820116820180604052508101906111eb9190614329565b5073ffffffffffffffffffffffffffffffffffffffff8d1663b8ce670d8d83610596565b6040517f742978da00000000000000000000000000000000000000000000000000000000815273ffffffffffffffffffffffffffffffffffffffff8381166004830152600091829182918291611271919089169063742978da906024016102d2565b905060006112c38873ffffffffffffffffffffffffffffffffffffffff16636ddca2106040518163ffffffff1660e01b815260040160e060405180830381865afa15801561036a573d6000803e3d6000fd5b905060006113158973ffffffffffffffffffffffffffffffffffffffff166318160ddd6040518163ffffffff1660e01b8152600401602060405180830381865afa1580156103e5573d6000803e3d6000fd5b8251909150600061132784868b612128565b9050816113765760405162461bcd60e51b815260206004820152601b60248201527f4d554c5449504f4f4c20524f555445523a206e6f2073686172657300000000006044820152606401610272565b61138a61096f610969838860200151612416565b97508360a00151955060006113a961043c6104368c8960200151612416565b90506107ba6107a7828b612425565b80428110156114095760405162461bcd60e51b815260206004820152601960248201527f4d756c7469706f6f6c20526f757465723a2045585049524544000000000000006044820152606401610272565b6040517f742978da00000000000000000000000000000000000000000000000000000000815273ffffffffffffffffffffffffffffffffffffffff8781166004830152600091829161146791908c169063742978da906024016102d2565b905060006114b98b73ffffffffffffffffffffffffffffffffffffffff16633429d5226040518163ffffffff1660e01b815260040160e060405180830381865afa15801561036a573d6000803e3d6000fd5b9050600061150b8c73ffffffffffffffffffffffffffffffffffffffff166318160ddd6040518163ffffffff1660e01b8152600401602060405180830381865afa1580156103e5573d6000803e3d6000fd5b8251909150600061151d84868d6126ee565b905061153361096f610969838860200151612416565b955050505050508773ffffffffffffffffffffffffffffffffffffffff166323b872dd338b61155f8990565b6040517fffffffff0000000000000000000000000000000000000000000000000000000060e086901b16815273ffffffffffffffffffffffffffffffffffffffff938416600482015292909116602483015260448201526064016020604051808303816000875af11580156115d8573d6000803e3d6000fd5b505050506040513d601f19601f820116820180604052508101906115fc9190614329565b50600073ffffffffffffffffffffffffffffffffffffffff8a16636e81221c8a8a856040517fffffffff0000000000000000000000000000000000000000000000000000000060e086901b16815273ffffffffffffffffffffffffffffffffffffffff93841660048201529183166024830152604482015290881660648201526084016080604051808303816000875af115801561169e573d6000803e3d6000fd5b505050506040513d601f19601f820116820180604052508101906116c2919061436f565b50509150506116d1610e598290565b6117435760405162461bcd60e51b815260206004820152602260248201527f4d756c7469706f6f6c20526f757465723a20736c65657061676520657865656460448201527f65640000000000000000000000000000000000000000000000000000000000006064820152608401610272565b50505050505050505050565b80428110156117a05760405162461bcd60e51b815260206004820152601960248201527f4d756c7469706f6f6c20526f757465723a2045585049524544000000000000006044820152606401610272565b6040517f23b872dd00000000000000000000000000000000000000000000000000000000815233600482015273ffffffffffffffffffffffffffffffffffffffff8881166024830152604482018690528716906323b872dd906064016020604051808303816000875af115801561181b573d6000803e3d6000fd5b505050506040513d601f19601f8201168201806040525081019061183f9190614329565b50604080517f0d4d151300000000000000000000000000000000000000000000000000000000815273ffffffffffffffffffffffffffffffffffffffff88811660048301526024820188905285811660448301528251908a1692630d4d1513926064808201939182900301816000875af11580156118c1573d6000803e3d6000fd5b505050506040513d601f19601f820116820180604052508101906118e5919061434b565b505050505050505050565b80428110156119415760405162461bcd60e51b815260206004820152601960248201527f4d756c7469706f6f6c20526f757465723a2045585049524544000000000000006044820152606401610272565b604080517f23b872dd00000000000000000000000000000000000000000000000000000000815233600482015273ffffffffffffffffffffffffffffffffffffffff8916602482018190526044820188905291516323b872dd9160648082019260209290919082900301816000875af11580156119c2573d6000803e3d6000fd5b505050506040513d601f19601f820116820180604052508101906119e69190614329565b50600073ffffffffffffffffffffffffffffffffffffffff881663b8ce670d88886040517fffffffff0000000000000000000000000000000000000000000000000000000060e085901b16815273ffffffffffffffffffffffffffffffffffffffff92831660048201526024810191909152908716604482015260640160408051808303816000875af1158015611a81573d6000803e3d6000fd5b505050506040513d601f19601f82011682018060405250810190611aa5919061434b565b50905080851115611b1e5760405162461bcd60e51b815260206004820152602260248201527f4d756c7469706f6f6c20526f757465723a20736c65657061676520657865656460448201527f65640000000000000000000000000000000000000000000000000000000000006064820152608401610272565b5050505050505050565b600080600080600080611b898a73ffffffffffffffffffffffffffffffffffffffff1663742978da8b6040518263ffffffff1660e01b81526004016102d2919073ffffffffffffffffffffffffffffffffffffffff91909116815260200190565b6040517f742978da00000000000000000000000000000000000000000000000000000000815273ffffffffffffffffffffffffffffffffffffffff8a81166004830152919250600091611be891908d169063742978da906024016102d2565b90506000611c3a8c73ffffffffffffffffffffffffffffffffffffffff1663dd68d8db6040518163ffffffff1660e01b815260040160e060405180830381865afa15801561036a573d6000803e3d6000fd5b90506000611c8c8d73ffffffffffffffffffffffffffffffffffffffff166318160ddd6040518163ffffffff1660e01b8152600401602060405180830381865afa1580156103e5573d6000803e3d6000fd5b82519091506000611c9e84878e612128565b60a08501519850905060008460a0018181525050611cc661096f610969838960200151612416565b9a506000611cf2611ce8611cde8e8860000151612416565b8860200151612425565b6109a1868f612c45565b9050611cff85878361243d565b9a508460a001519750611d2a6107a78e6109a1611d208f8b60200151612416565b8b60200151612425565b995050505050505050945094509450945094565b6040517f742978da00000000000000000000000000000000000000000000000000000000815273ffffffffffffffffffffffffffffffffffffffff8381166004830152600091829182918291611da0919089169063742978da906024016102d2565b90506000611df28873ffffffffffffffffffffffffffffffffffffffff16636ddca2106040518163ffffffff1660e01b815260040160e060405180830381865afa15801561036a573d6000803e3d6000fd5b90506000611e448973ffffffffffffffffffffffffffffffffffffffff166318160ddd6040518163ffffffff1660e01b8152600401602060405180830381865afa1580156103e5573d6000803e3d6000fd5b825190915081611e965760405162461bcd60e51b815260206004820152601b60248201527f4d554c5449504f4f4c20524f555445523a206e6f2073686172657300000000006044820152606401610272565b6000611ea861043c6107628b85612416565b9050611eb5848683612a7b565b97508360a0015195506000611ed461043c6104368b8960200151612416565b90506107ba6107a7828c612425565b8042811015611f345760405162461bcd60e51b815260206004820152601960248201527f4d756c7469706f6f6c20526f757465723a2045585049524544000000000000006044820152606401610272565b604080517f23b872dd00000000000000000000000000000000000000000000000000000000815233600482015273ffffffffffffffffffffffffffffffffffffffff8b16602482018190526044820189905291516323b872dd9160648082019260209290919082900301816000875af1158015611fb5573d6000803e3d6000fd5b505050506040513d601f19601f82011682018060405250810190611fd99190614329565b506040517f6e81221c00000000000000000000000000000000000000000000000000000000815273ffffffffffffffffffffffffffffffffffffffff8981166004830152888116602483015260448201869052848116606483015260009182918c1690636e81221c90608401610e06565b61207c6040518060a0016040528060008152602001600081526020016000815260200160008152602001600081525090565b8151815260208201516020820152604082015160408201526060820151606082015260808201516080820152919050565b6120ed6040518060e00160405280600081526020016000815260200160008152602001600081526020016000815260200160008152602001600081525090565b815181526020820151602082015260408201516040820152606082015160608201526080820151608082015260a082015160a0820152919050565b82516000906121565761213f828460200151612416565b8452825161214d9083612c45565b8352508061240f565b600061218361217e61216785612c54565b61217088612c5e565b61217988612d2a565b612dbc565b612c54565b905060006121a2846109a1670de0b6b3a76400005b8960800151612c45565b905060006121b18787856131ef565b905060006121c08888856131ef565b905060006121cf8989836131ef565b90508181106122a9578395506121e58282101590565b6122575760405162461bcd60e51b815260206004820152602a60248201527f646576696174696f6e206e6f20666565732073686f756c64206265206c6f776560448201527f72207468616e206f6c64000000000000000000000000000000000000000000006064820152608401610272565b6000811561227c5761227961096f8a6060015161227485876126df565b612416565b90505b61228a8960600151826126df565b60608a015260a08a015161229e9082612c45565b60a08b0152506123be565b6122b6838a606001511190565b6123025760405162461bcd60e51b815260206004820152601960248201527f646576696174696f6e206f766572666c6f7773206c696d6974000000000000006044820152606401610272565b8461234f5760405162461bcd60e51b815260206004820152601860248201527f6e6f20637572766520736f6c7574696f6e7320666f756e6400000000000000006044820152606401610272565b608089015194955085946000612376896107b589612274670de0b6b3a76400005b87612c45565b90506000612388828d60c00151612416565b90506123a161239b8c6060015184612c45565b826126df565b60608c015260408b01516123b59082612c45565b60408c01525050505b87516123ca9087612c45565b8852885160208901516123e891906123e3908990612416565b612c45565b8952604088015160808a015161240491906123e3908990612416565b604089015250505050505b9392505050565b600061240f6104098484613263565b600061240f61040984670de0b6b3a76400008561336a565b81516000908211156124b75760405162461bcd60e51b815260206004820152602160248201527f63616e2774206275726e206d6f726520617373657473207468616e206578697360448201527f74000000000000000000000000000000000000000000000000000000000000006064820152608401610272565b6124d184600001516124cd848660200151612416565b1090565b156126725760006124e3858585613475565b905060006124f2868683613475565b9050818110612565576000811561251b5761251861096f876060015161227485876126df565b90505b6125298660600151826126df565b606087015260a087015161253d9082612c45565b60a088015261255d856109a1670de0b6b3a76400005b8a60800151612c45565b93505061266b565b6125728287606001511190565b6125be5760405162461bcd60e51b815260206004820152601960248201527f646576696174696f6e206f766572666c6f7773206c696d6974000000000000006044820152606401610272565b60006125ec6125de6125d4896040015186612416565b8960600151612425565b6109a18960600151866126df565b9050612607856109a1612553670de0b6b3a764000085612c45565b93506000612629866107b587612274670de0b6b3a76400008d60800151612c45565b9050600061263b828a60c00151612416565b905061264e61239b896060015184612c45565b606089015260408801516126629082612c45565b60408901525050505b505061268f565b61268c826109a1670de0b6b3a76400008760800151612c45565b90505b825161269b90836126df565b8352835160208401516126b491906107b5908590612416565b8452604083015160808501516126d091906123e3908490612416565b60409093019290925250919050565b600061240f61040983856143d4565b81516000908211156127685760405162461bcd60e51b815260206004820152602160248201527f63616e2774206275726e206d6f726520617373657473207468616e206578697360448201527f74000000000000000000000000000000000000000000000000000000000000006064820152608401610272565b600061279061217e61277985612c54565b61278288612c5e565b61278b88612d2a565b6134a5565b905060006127a984612274670de0b6b3a7640000612198565b905060006127b8878785613475565b905060006127c7888885613475565b905060006127d6898983613475565b90508181106128af578395506127f0868960000151101590565b6128625760405162461bcd60e51b815260206004820152602160248201527f63616e2774206275726e206d6f726520617373657473207468616e206578697360448201527f74000000000000000000000000000000000000000000000000000000000000006064820152608401610272565b600081156128825761287f61096f8a6060015161227485876126df565b90505b6128908960600151826126df565b60608a015260a08a01516128a49082612c45565b60a08b015250612a3a565b8495506128c0868960000151101590565b6129325760405162461bcd60e51b815260206004820152602160248201527f63616e2774206275726e206d6f726520617373657473207468616e206578697360448201527f74000000000000000000000000000000000000000000000000000000000000006064820152608401610272565b61293f838a606001511190565b61298b5760405162461bcd60e51b815260206004820152601960248201527f646576696174696f6e206f766572666c6f7773206c696d6974000000000000006044820152606401610272565b846129d85760405162461bcd60e51b815260206004820152601860248201527f6e6f20637572766520736f6c7574696f6e7320666f756e6400000000000000006044820152606401610272565b608089015160006129f8886107b58b612274670de0b6b3a7640000612370565b90506000612a0a828d60c00151612416565b9050612a1d61239b8c6060015184612c45565b60608c015260408b0151612a319082612c45565b60408c01525050505b8751612a4690876126df565b885288516020890151612a5f91906107b5908990612416565b8952604088015160808a015161240491906123e3908a90612416565b8251600090612a925761213f828460200151612416565b6000612a9f8585856131ef565b90506000612aae8686836131ef565b9050818110612b1c5760008115612ad757612ad461096f876060015161227485876126df565b90505b612ae58660600151826126df565b606087015260a0870151612af99082612c45565b8760a0018181525050612b14856123e3878a60800151612416565b935050612bf6565b612b298287606001511190565b612b755760405162461bcd60e51b815260206004820152601960248201527f646576696174696f6e206f766572666c6f7773206c696d6974000000000000006044820152606401610272565b6000612b946125de6125d4612b8e8a6040015187612416565b88612416565b90506000612ba6828960c00151612416565b9050612bb961239b886060015184612c45565b60608801526040870151612bcd9082612c45565b876040018181525050612bf1612beb876123e3898c60800151612416565b83612c45565b945050505b8451612c029085612c45565b855285516020860151612c1b91906123e3908790612416565b865260408501516080870151612c3791906123e3908790612416565b604086015250509392505050565b600061240f61040983856143e7565b6000815b92915050565b612c9e6040518060e00160405280600081526020016000815260200160008152602001600081526020016000815260200160008152602001600081525090565b6040518060e00160405280612cb68460000151612c54565b8152602001612cc88460200151612c54565b8152602001612cda8460400151612c54565b8152602001612cec8460600151612c54565b8152602001612cfe8460800151612c54565b8152602001612d108460a00151612c54565b8152602001612d228460c00151612c54565b905292915050565b612d5c6040518060a0016040528060008152602001600081526020016000815260200160008152602001600081525090565b6040518060a00160405280612d748460000151612c54565b8152602001612d868460200151612c54565b8152602001612d988460400151612c54565b8152602001612daa8460600151612c54565b8152602001612d228460800151612c54565b600080612dd6670de0b6b3a76400005b856080015161394b565b90506000612dfe670de0b6b3a76400005b612df98660800151886020015161395a565b613ad1565b90506000612e148660400151876060015161395a565b90506000612e4e612e44612e3586612e308b6060015188613ad1565b613ae0565b612e3f8587613ae0565b61394b565b8760200151613ae0565b90506000612ec5612eb1612e88612e698b6060015188613ad1565b612e30612e7a8d600001518b613ae0565b612df98f8e60200151613ae0565b612df9612e958988613ad1565b612e30612eaa8d600001518e60200151613ae0565b8e51613ad1565b612e3f612ebe8688613ae0565b8b51613ae0565b90506000612f12612ef1612eeb612ee48b600001518c60200151613ae0565b8c51613ad1565b8c613ae0565b612df9612f0c612f058d606001518a613ad1565b8d51613ae0565b8d613ae0565b90506000612f3f612f24846002613c07565b612df9612f39673782dace9d90000088613ae0565b85613ae0565b90506000612f8e612f7b612f76612f5e8d600001518e60200151613ae0565b8e51612e3f90612e308d670de0b6b3a7640000613ad1565b613cff565b612f89898d60200151613ae0565b61395a565b9050612f9b826000131590565b1561306457612fa982613d0d565b91506000612fd9612fd3612fc5612fbf88613cff565b86613ad1565b671bc16d674ec8000061395a565b8761395a565b90506000612ffb612ff5612fc5612fef89613cff565b8761394b565b8861395a565b90508d828412801561301257506130128360001290565b801561301d57508281135b1561302f5761302c8c8461394b565b9b505b818412801561304357506130438260001290565b801561304e57508181135b156130605761305d8c8361394b565b9b505b5050505b5050505050600061308d612e4461308386612e308b606001518861394b565b612df98587613ae0565b905060006130c26130b56130a8612e698b606001518861394b565b612e3f612e958988613ad1565b612df9612ebe8688613ae0565b905060006130ff6130eb612eeb612f766130e48c600001518d60200151613ae0565b8d51613ad1565b612df9612f0c612f058d606001518a61394b565b90506000613111612f24846002613c07565b90506000613130612f7b612f76612f5e8d600001518e60200151613ae0565b905061313d826000131590565b156131e05761314b82613d0d565b91506000613161612fd3612fc5612fbf88613cff565b90506000613177612ff5612fc5612fef89613cff565b90508d828413801561318e575061318e8360001290565b801561319957508281135b156131ab576131a88c8461394b565b9b505b81841380156131bf57506131bf8260001290565b80156131ca57508181135b156131dc576131d98c8361394b565b9b505b5050505b50505050505050509392505050565b60008061322961217e613213613209876000015187612c45565b8760200151612416565b6109a188600001516123e3888a60200151612416565b9050600061324261217e86608001518860200151612425565b905061325961217e6132548484613ad1565b613dd8565b9695505050505050565b600080807fffffffffffffffffffffffffffffffffffffffffffffffffffffffffffffffff848609848602925082811083820303915050806000036132b55750670de0b6b3a764000090049050612c58565b670de0b6b3a76400008110613300576040517f5173648d0000000000000000000000000000000000000000000000000000000081526004810186905260248101859052604401610272565b6000670de0b6b3a7640000858709620400008185030493109091037d40000000000000000000000000000000000000000000000000000000000002919091177faccb18165bd6fe31ae1cf318dc5b51eee0e1ba569b88cd74c1773b91fac106690291505092915050565b600080807fffffffffffffffffffffffffffffffffffffffffffffffffffffffffffffffff858709858702925082811083820303915050806000036133c2578382816133b8576133b86143fa565b049250505061240f565b83811061340c576040517f63a05778000000000000000000000000000000000000000000000000000000008152600481018790526024810186905260448101859052606401610272565b60008486880960026001871981018816978890046003810283188082028403028082028403028082028403028082028403028082028403029081029092039091026000889003889004909101858311909403939093029303949094049190911702949350505050565b60008061322961217e61348f6132098760000151876126df565b6109a188600001516107b5888a60200151612416565b6000806134b9670de0b6b3a7640000612dcc565b905060006134ce670de0b6b3a7640000612de7565b905060006134e48660400151876060015161395a565b905060006134fc612e44612f76896060015186613ad1565b9050600061356e61355261353861352a61352361351d8a8d60200151613ae0565b8e613ae0565b8c5161394b565b612e308c6060015189613ad1565b612e3f612f0c613548888a613ae0565b8c60200151613ae0565b612df96135678a600001518b60200151613ae0565b8b51613ad1565b905060006135e16135d161359f61359161351d61358a8b613cff565b8e51613ae0565b612e308d606001518a613ad1565b612e3f6135c76135c16135ba8e600001518f60200151613ae0565b8f51613ad1565b8f613ae0565b612e308b8a613ad1565b612df9612f0c612f05888a613ae0565b905060006135f3612f24846002613c07565b9050600061360c612ee48b600001518c60200151613ae0565b8b5160208c015160608e01519293509091600061363a61363086612e3f8e88613ae0565b612f898d86613ae0565b9050613647866000131590565b156137625761365586613d0d565b95506000613677613671612fc561366b8c613cff565b8a613ad1565b8b61395a565b90506000613699613693612fc561368d8d613cff565b8b61394b565b8c61395a565b90506136b16136ac87612df98589613ae0565b151590565b15613702576136d76136d26132548f612e3f8b612f898c612df98a8e613ae0565b851390565b80156136e257508183135b15613702578e8212806136f357508e155b6136fd578e6136ff565b815b9e505b6137136136ac87612df98489613ae0565b1561375f576137346136d26132548f612e3f8b612f898c612df9898e613ae0565b801561373f57508083135b1561375f578e81128061375057508e155b61375a578e61375c565b805b9e505b50505b505050505050505050600061377e612e4488606001518561394b565b905060006137b76135526135386137a9612f766137a26135c18b8e60200151613ae0565b8d5161394b565b612e308c606001518961394b565b905060006137e36135d161359f6137d561351d8a8e60000151613ae0565b612e308d606001518a61394b565b905060006137f5612f24846002613c07565b9050600061380e612ee48b600001518c60200151613ae0565b8b5160208c015160608e01519293509091600061383261363086612e3f8e88613ae0565b905061383f866000131590565b156139385761384d86613d0d565b95506000613863613671612fc561366b8c613cff565b90506000613879613693612fc561368d8d613cff565b905061388c6136ac87612df98589613ae0565b156138d8576138ad6136d26132548f612e3f8b612f898c612df98a8e613ae0565b80156138b857508183125b156138d8578e8212806138c957508e155b6138d3578e6138d5565b815b9e505b6138e96136ac87612df98489613ae0565b156139355761390a6136d26132548f612e3f8b612f898c612df9898e613ae0565b801561391557508083125b15613935578e81128061392657508e155b613930578e613932565b805b9e505b50505b5050505050505050505050509392505050565b600061240f6104098385614429565b600082827f80000000000000000000000000000000000000000000000000000000000000008214806139ab57507f800000000000000000000000000000000000000000000000000000000000000081145b156139e2576040517f9fe2b45000000000000000000000000000000000000000000000000000000000815260040160405180910390fd5b600080600084126139f357836139f8565b836000035b915060008312613a085782613a0d565b826000035b90506000613a2483670de0b6b3a76400008461336a565b90507f7fffffffffffffffffffffffffffffffffffffffffffffffffffffffffffffff811115613a8a576040517fd49c26b30000000000000000000000000000000000000000000000000000000081526004810189905260248101889052604401610272565b7fffffffffffffffffffffffffffffffffffffffffffffffffffffffffffffffff85851813613ac481613ac05782600003610409565b8290565b9998505050505050505050565b600061240f6104098385614451565b600082827f8000000000000000000000000000000000000000000000000000000000000000821480613b3157507f800000000000000000000000000000000000000000000000000000000000000081145b15613b68576040517fa6070c2500000000000000000000000000000000000000000000000000000000815260040160405180910390fd5b60008060008412613b795783613b7e565b836000035b915060008312613b8e5782613b93565b826000035b90506000613ba18383613263565b90507f7fffffffffffffffffffffffffffffffffffffffffffffffffffffffffffffff811115613a8a576040517f120b5b430000000000000000000000000000000000000000000000000000000081526004810189905260248101889052604401610272565b600080613c1661040985613dd8565b90506000808460011611613c3257670de0b6b3a7640000613c34565b815b9050600184901c5b8015613c6c57613c4c8384613263565b92506001811615613c6457613c618284613263565b91505b60011c613c3c565b7f7fffffffffffffffffffffffffffffffffffffffffffffffffffffffffffffff821115613cd0576040517f8f053ff60000000000000000000000000000000000000000000000000000000081526004810187905260248101869052604401610272565b8160008088128015613ce55750866001166001145b90508015613cf4578160000391505b509695505050505050565b6000612c5861040983614478565b60008181811215613d4d576040517fb9b0f49b00000000000000000000000000000000000000000000000000000000815260048101849052602401610272565b613d7f670de0b6b3a76400007f7fffffffffffffffffffffffffffffffffffffffffffffffffffffffffffffff6144b0565b811315613dbb576040517f063103bf00000000000000000000000000000000000000000000000000000000815260048101849052602401610272565b6000613dd0670de0b6b3a76400008302613e4e565b949350505050565b6000817f80000000000000000000000000000000000000000000000000000000000000008101613e34576040517fec2b9e6700000000000000000000000000000000000000000000000000000000815260040160405180910390fd5b60008112613e42578261240f565b61240f61040982614478565b600081600003613e6057506000919050565b506001817001000000000000000000000000000000008110613e875760409190911b9060801c5b680100000000000000008110613ea25760209190911b9060401c5b6401000000008110613eb95760109190911b9060201c5b620100008110613ece5760089190911b9060101c5b6101008110613ee25760049190911b9060081c5b60108110613ef55760029190911b9060041c5b60048110613f0557600182901b91505b6001828481613f1657613f166143fa565b048301901c91506001828481613f2e57613f2e6143fa565b048301901c91506001828481613f4657613f466143fa565b048301901c91506001828481613f5e57613f5e6143fa565b048301901c91506001828481613f7657613f766143fa565b048301901c91506001828481613f8e57613f8e6143fa565b048301901c91506001828481613fa657613fa66143fa565b048301901c91506000828481613fbe57613fbe6143fa565b049050808310613fcc578092505b5050919050565b803573ffffffffffffffffffffffffffffffffffffffff81168114613ff757600080fd5b919050565b60008060008060008060c0878903121561401557600080fd5b61401e87613fd3565b955061402c60208801613fd3565b9450604087013593506060870135925061404860808801613fd3565b915060a087013590509295509295509295565b60008060006060848603121561407057600080fd5b61407984613fd3565b925061408760208501613fd3565b9150604084013590509250925092565b600080600080608085870312156140ad57600080fd5b6140b685613fd3565b93506140c460208601613fd3565b92506140d260408601613fd3565b9396929550929360600135925050565b600080600080600080600060e0888a0312156140fd57600080fd5b61410688613fd3565b965061411460208901613fd3565b955061412260408901613fd3565b9450606088013593506080880135925061413e60a08901613fd3565b915060c0880135905092959891949750929550565b600080600080600080600080610100898b03121561417057600080fd5b61417989613fd3565b975061418760208a01613fd3565b965061419560408a01613fd3565b9550606089013594506080890135935060a089013592506141b860c08a01613fd3565b915060e089013590509295985092959890939650565b600060a082840312156141e057600080fd5b60405160a0810181811067ffffffffffffffff8211171561422a577f4e487b7100000000000000000000000000000000000000000000000000000000600052604160045260246000fd5b806040525082518152602083015160208201526040830151604082015260608301516060820152608083015160808201528091505092915050565b600060e0828403121561427757600080fd5b60405160e0810181811067ffffffffffffffff821117156142c1577f4e487b7100000000000000000000000000000000000000000000000000000000600052604160045260246000fd5b8060405250825181526020830151602082015260408301516040820152606083015160608201526080830151608082015260a083015160a082015260c083015160c08201528091505092915050565b60006020828403121561432257600080fd5b5051919050565b60006020828403121561433b57600080fd5b8151801515811461240f57600080fd5b6000806040838503121561435e57600080fd5b505080516020909101519092909150565b6000806000806080858703121561438557600080fd5b505082516020840151604085015160609095015191969095509092509050565b7f4e487b7100000000000000000000000000000000000000000000000000000000600052601160045260246000fd5b81810381811115612c5857612c586143a5565b80820180821115612c5857612c586143a5565b7f4e487b7100000000000000000000000000000000000000000000000000000000600052601260045260246000fd5b8082018281126000831280158216821582161715614449576144496143a5565b505092915050565b8181036000831280158383131683831282161715614471576144716143a5565b5092915050565b60007f800000000000000000000000000000000000000000000000000000000000000082036144a9576144a96143a5565b5060000390565b6000826144e6577f4e487b7100000000000000000000000000000000000000000000000000000000600052601260045260246000fd5b7fffffffffffffffffffffffffffffffffffffffffffffffffffffffffffffffff83147f80000000000000000000000000000000000000000000000000000000000000008314161561453a5761453a6143a5565b50059056fea264697066735822122035ab7db28559babe7e0a0655e2f9dfa8564705dcfe738c3f78399e284f08830b64736f6c63430008150033",
    "linkReferences": {}
  },
  "methodIdentifiers": {
    "burnWithAmountOut(address,address,uint256,uint256,address,uint256)": "7284c1a2",
    "burnWithSharesIn(address,address,uint256,uint256,address,uint256)": "c274fc66",
    "estimateBurnAmountOut(address,address,uint256)": "0f5767f0",
    "estimateBurnSharesIn(address,address,uint256)": "4ec5b842",
    "estimateMintAmountIn(address,address,uint256)": "e11289b2",
    "estimateMintSharesOut(address,address,uint256)": "89cbac18",
    "estimateSwapAmountIn(address,address,address,uint256)": "13860779",
    "estimateSwapAmountOut(address,address,address,uint256)": "e0470764",
    "mintWithAmountIn(address,address,uint256,uint256,address,uint256)": "0b315839",
    "mintWithSharesOut(address,address,uint256,uint256,address,uint256)": "bb668a78",
    "swap(address,address,address,uint256,uint256,uint256,address,uint256)": "f788664a",
    "swapWithAmountIn(address,address,address,uint256,uint256,address,uint256)": "608c5755",
    "swapWithAmountOut(address,address,address,uint256,uint256,address,uint256)": "aec992c5"
  },
  "id": 49
}