{
  "abi": [
    {
      "inputs": [
        {
          "internalType": "string",
          "name": "_name",
          "type": "string"
        },
        {
          "internalType": "string",
          "name": "_symbol",
          "type": "string"
        }
      ],
      "stateMutability": "nonpayable",
      "type": "constructor"
    },
    {
      "anonymous": false,
      "inputs": [
        {
          "indexed": true,
          "internalType": "address",
          "name": "owner",
          "type": "address"
        },
        {
          "indexed": true,
          "internalType": "address",
          "name": "spender",
          "type": "address"
        },
        {
          "indexed": false,
          "internalType": "uint256",
          "name": "value",
          "type": "uint256"
        }
      ],
      "name": "Approval",
      "type": "event"
    },
    {
      "anonymous": false,
      "inputs": [
        {
          "indexed": true,
          "internalType": "address",
          "name": "asset",
          "type": "address"
        },
        {
          "indexed": false,
          "internalType": "uint256",
          "name": "percent",
          "type": "uint256"
        }
      ],
      "name": "AssetPercentsChange",
      "type": "event"
    },
    {
      "anonymous": false,
      "inputs": [
        {
          "indexed": true,
          "internalType": "address",
          "name": "asset",
          "type": "address"
        },
        {
          "indexed": false,
          "internalType": "uint256",
          "name": "price",
          "type": "uint256"
        }
      ],
      "name": "AssetPriceChange",
      "type": "event"
    },
    {
      "anonymous": false,
      "inputs": [
        {
          "indexed": true,
          "internalType": "address",
          "name": "asset",
          "type": "address"
        },
        {
          "indexed": false,
          "internalType": "uint256",
          "name": "quantity",
          "type": "uint256"
        }
      ],
      "name": "AssetQuantityChange",
      "type": "event"
    },
    {
      "anonymous": false,
      "inputs": [
        {
          "indexed": false,
          "internalType": "uint256",
          "name": "value",
          "type": "uint256"
        }
      ],
      "name": "BaseBurnFeeChange",
      "type": "event"
    },
    {
      "anonymous": false,
      "inputs": [
        {
          "indexed": false,
          "internalType": "uint256",
          "name": "value",
          "type": "uint256"
        }
      ],
      "name": "BaseMintFeeChange",
      "type": "event"
    },
    {
      "anonymous": false,
      "inputs": [
        {
          "indexed": false,
          "internalType": "uint256",
          "name": "value",
          "type": "uint256"
        }
      ],
      "name": "BaseTradeFeeChange",
      "type": "event"
    },
    {
      "anonymous": false,
      "inputs": [
        {
          "indexed": false,
          "internalType": "uint256",
          "name": "value",
          "type": "uint256"
        }
      ],
      "name": "DepegBaseFeeRatioChange",
      "type": "event"
    },
    {
      "anonymous": false,
      "inputs": [
        {
          "indexed": false,
          "internalType": "uint256",
          "name": "value",
          "type": "uint256"
        }
      ],
      "name": "DeviationPercentLimitChange",
      "type": "event"
    },
    {
      "anonymous": false,
      "inputs": [
        {
          "indexed": false,
          "internalType": "uint256",
          "name": "value",
          "type": "uint256"
        }
      ],
      "name": "HalfDeviationFeeRatioChange",
      "type": "event"
    },
    {
      "anonymous": false,
      "inputs": [
        {
          "indexed": true,
          "internalType": "address",
          "name": "previousOwner",
          "type": "address"
        },
        {
          "indexed": true,
          "internalType": "address",
          "name": "newOwner",
          "type": "address"
        }
      ],
      "name": "OwnershipTransferred",
      "type": "event"
    },
    {
      "anonymous": false,
      "inputs": [
        {
          "indexed": false,
          "internalType": "address",
          "name": "percentsSource",
          "type": "address"
        }
      ],
      "name": "PercentsSourceChange",
      "type": "event"
    },
    {
      "anonymous": false,
      "inputs": [
        {
          "indexed": false,
          "internalType": "address",
          "name": "priceSource",
          "type": "address"
        }
      ],
      "name": "PriceSourceChange",
      "type": "event"
    },
    {
      "anonymous": false,
      "inputs": [
        {
          "indexed": true,
          "internalType": "address",
          "name": "from",
          "type": "address"
        },
        {
          "indexed": true,
          "internalType": "address",
          "name": "to",
          "type": "address"
        },
        {
          "indexed": false,
          "internalType": "uint256",
          "name": "value",
          "type": "uint256"
        }
      ],
      "name": "Transfer",
      "type": "event"
    },
    {
      "anonymous": false,
      "inputs": [
        {
          "indexed": true,
          "internalType": "address",
          "name": "asset",
          "type": "address"
        },
        {
          "indexed": false,
          "internalType": "uint256",
          "name": "value",
          "type": "uint256"
        }
      ],
      "name": "WithdrawCollectedFees",
      "type": "event"
    },
    {
      "inputs": [],
      "name": "DENOMINATOR",
      "outputs": [
        {
          "internalType": "uint256",
          "name": "",
          "type": "uint256"
        }
      ],
      "stateMutability": "view",
      "type": "function"
    },
    {
      "inputs": [
        {
          "internalType": "address",
          "name": "owner",
          "type": "address"
        },
        {
          "internalType": "address",
          "name": "spender",
          "type": "address"
        }
      ],
      "name": "allowance",
      "outputs": [
        {
          "internalType": "uint256",
          "name": "",
          "type": "uint256"
        }
      ],
      "stateMutability": "view",
      "type": "function"
    },
    {
      "inputs": [
        {
          "internalType": "address",
          "name": "spender",
          "type": "address"
        },
        {
          "internalType": "uint256",
          "name": "amount",
          "type": "uint256"
        }
      ],
      "name": "approve",
      "outputs": [
        {
          "internalType": "bool",
          "name": "",
          "type": "bool"
        }
      ],
      "stateMutability": "nonpayable",
      "type": "function"
    },
    {
      "inputs": [
        {
          "internalType": "address",
          "name": "",
          "type": "address"
        }
      ],
      "name": "assets",
      "outputs": [
        {
          "internalType": "uint256",
          "name": "quantity",
          "type": "uint256"
        },
        {
          "internalType": "uint256",
          "name": "price",
          "type": "uint256"
        },
        {
          "internalType": "uint256",
          "name": "collectedFees",
          "type": "uint256"
        },
        {
          "internalType": "uint256",
          "name": "collectedCashbacks",
          "type": "uint256"
        },
        {
          "internalType": "uint256",
          "name": "percent",
          "type": "uint256"
        }
      ],
      "stateMutability": "view",
      "type": "function"
    },
    {
      "inputs": [
        {
          "internalType": "address",
          "name": "account",
          "type": "address"
        }
      ],
      "name": "balanceOf",
      "outputs": [
        {
          "internalType": "uint256",
          "name": "",
          "type": "uint256"
        }
      ],
      "stateMutability": "view",
      "type": "function"
    },
    {
      "inputs": [],
      "name": "baseBurnFee",
      "outputs": [
        {
          "internalType": "uint256",
          "name": "",
          "type": "uint256"
        }
      ],
      "stateMutability": "view",
      "type": "function"
    },
    {
      "inputs": [],
      "name": "baseMintFee",
      "outputs": [
        {
          "internalType": "uint256",
          "name": "",
          "type": "uint256"
        }
      ],
      "stateMutability": "view",
      "type": "function"
    },
    {
      "inputs": [],
      "name": "baseTradeFee",
      "outputs": [
        {
          "internalType": "uint256",
          "name": "",
          "type": "uint256"
        }
      ],
      "stateMutability": "view",
      "type": "function"
    },
    {
      "inputs": [
        {
          "internalType": "address",
          "name": "_asset",
          "type": "address"
        },
        {
          "internalType": "uint256",
          "name": "_share",
          "type": "uint256"
        },
        {
          "internalType": "address",
          "name": "_to",
          "type": "address"
        }
      ],
      "name": "burn",
      "outputs": [
        {
          "internalType": "uint256",
          "name": "_amountOut",
          "type": "uint256"
        },
        {
          "internalType": "uint256",
          "name": "refund",
          "type": "uint256"
        }
      ],
      "stateMutability": "nonpayable",
      "type": "function"
    },
    {
      "inputs": [],
      "name": "decimals",
      "outputs": [
        {
          "internalType": "uint8",
          "name": "",
          "type": "uint8"
        }
      ],
      "stateMutability": "view",
      "type": "function"
    },
    {
      "inputs": [
        {
          "internalType": "address",
          "name": "spender",
          "type": "address"
        },
        {
          "internalType": "uint256",
          "name": "subtractedValue",
          "type": "uint256"
        }
      ],
      "name": "decreaseAllowance",
      "outputs": [
        {
          "internalType": "bool",
          "name": "",
          "type": "bool"
        }
      ],
      "stateMutability": "nonpayable",
      "type": "function"
    },
    {
      "inputs": [],
      "name": "depegBaseFeeRatio",
      "outputs": [
        {
          "internalType": "uint256",
          "name": "",
          "type": "uint256"
        }
      ],
      "stateMutability": "view",
      "type": "function"
    },
    {
      "inputs": [],
      "name": "deviationPercentLimit",
      "outputs": [
        {
          "internalType": "uint256",
          "name": "",
          "type": "uint256"
        }
      ],
      "stateMutability": "view",
      "type": "function"
    },
    {
      "inputs": [],
      "name": "feeReceiver",
      "outputs": [
        {
          "internalType": "address",
          "name": "",
          "type": "address"
        }
      ],
      "stateMutability": "view",
      "type": "function"
    },
    {
      "inputs": [
        {
          "internalType": "address",
          "name": "_asset",
          "type": "address"
        }
      ],
      "name": "getAssets",
      "outputs": [
        {
          "components": [
            {
              "internalType": "uint256",
              "name": "quantity",
              "type": "uint256"
            },
            {
              "internalType": "uint256",
              "name": "price",
              "type": "uint256"
            },
            {
              "internalType": "uint256",
              "name": "collectedFees",
              "type": "uint256"
            },
            {
              "internalType": "uint256",
              "name": "collectedCashbacks",
              "type": "uint256"
            },
            {
              "internalType": "uint256",
              "name": "percent",
              "type": "uint256"
            }
          ],
          "internalType": "struct MpAsset",
          "name": "asset",
          "type": "tuple"
        }
      ],
      "stateMutability": "view",
      "type": "function"
    },
    {
      "inputs": [],
      "name": "getBurnContext",
      "outputs": [
        {
          "components": [
            {
              "internalType": "uint256",
              "name": "totalCurrentUsdAmount",
              "type": "uint256"
            },
            {
              "internalType": "uint256",
              "name": "totalAssetPercents",
              "type": "uint256"
            },
            {
              "internalType": "uint256",
              "name": "halfDeviationFeeRatio",
              "type": "uint256"
            },
            {
              "internalType": "uint256",
              "name": "deviationPercentLimit",
              "type": "uint256"
            },
            {
              "internalType": "uint256",
              "name": "operationBaseFee",
              "type": "uint256"
            },
            {
              "internalType": "uint256",
              "name": "userCashbackBalance",
              "type": "uint256"
            },
            {
              "internalType": "uint256",
              "name": "depegBaseFeeRatio",
              "type": "uint256"
            }
          ],
          "internalType": "struct MpContext",
          "name": "context",
          "type": "tuple"
        }
      ],
      "stateMutability": "view",
      "type": "function"
    },
    {
      "inputs": [
        {
          "internalType": "uint256",
          "name": "baseFee",
          "type": "uint256"
        }
      ],
      "name": "getContext",
      "outputs": [
        {
          "components": [
            {
              "internalType": "uint256",
              "name": "totalCurrentUsdAmount",
              "type": "uint256"
            },
            {
              "internalType": "uint256",
              "name": "totalAssetPercents",
              "type": "uint256"
            },
            {
              "internalType": "uint256",
              "name": "halfDeviationFeeRatio",
              "type": "uint256"
            },
            {
              "internalType": "uint256",
              "name": "deviationPercentLimit",
              "type": "uint256"
            },
            {
              "internalType": "uint256",
              "name": "operationBaseFee",
              "type": "uint256"
            },
            {
              "internalType": "uint256",
              "name": "userCashbackBalance",
              "type": "uint256"
            },
            {
              "internalType": "uint256",
              "name": "depegBaseFeeRatio",
              "type": "uint256"
            }
          ],
          "internalType": "struct MpContext",
          "name": "context",
          "type": "tuple"
        }
      ],
      "stateMutability": "view",
      "type": "function"
    },
    {
      "inputs": [],
      "name": "getMintContext",
      "outputs": [
        {
          "components": [
            {
              "internalType": "uint256",
              "name": "totalCurrentUsdAmount",
              "type": "uint256"
            },
            {
              "internalType": "uint256",
              "name": "totalAssetPercents",
              "type": "uint256"
            },
            {
              "internalType": "uint256",
              "name": "halfDeviationFeeRatio",
              "type": "uint256"
            },
            {
              "internalType": "uint256",
              "name": "deviationPercentLimit",
              "type": "uint256"
            },
            {
              "internalType": "uint256",
              "name": "operationBaseFee",
              "type": "uint256"
            },
            {
              "internalType": "uint256",
              "name": "userCashbackBalance",
              "type": "uint256"
            },
            {
              "internalType": "uint256",
              "name": "depegBaseFeeRatio",
              "type": "uint256"
            }
          ],
          "internalType": "struct MpContext",
          "name": "context",
          "type": "tuple"
        }
      ],
      "stateMutability": "view",
      "type": "function"
    },
    {
      "inputs": [],
      "name": "getTradeContext",
      "outputs": [
        {
          "components": [
            {
              "internalType": "uint256",
              "name": "totalCurrentUsdAmount",
              "type": "uint256"
            },
            {
              "internalType": "uint256",
              "name": "totalAssetPercents",
              "type": "uint256"
            },
            {
              "internalType": "uint256",
              "name": "halfDeviationFeeRatio",
              "type": "uint256"
            },
            {
              "internalType": "uint256",
              "name": "deviationPercentLimit",
              "type": "uint256"
            },
            {
              "internalType": "uint256",
              "name": "operationBaseFee",
              "type": "uint256"
            },
            {
              "internalType": "uint256",
              "name": "userCashbackBalance",
              "type": "uint256"
            },
            {
              "internalType": "uint256",
              "name": "depegBaseFeeRatio",
              "type": "uint256"
            }
          ],
          "internalType": "struct MpContext",
          "name": "context",
          "type": "tuple"
        }
      ],
      "stateMutability": "view",
      "type": "function"
    },
    {
      "inputs": [
        {
          "components": [
            {
              "internalType": "uint256",
              "name": "quantity",
              "type": "uint256"
            },
            {
              "internalType": "uint256",
              "name": "price",
              "type": "uint256"
            },
            {
              "internalType": "uint256",
              "name": "collectedFees",
              "type": "uint256"
            },
            {
              "internalType": "uint256",
              "name": "collectedCashbacks",
              "type": "uint256"
            },
            {
              "internalType": "uint256",
              "name": "percent",
              "type": "uint256"
            }
          ],
          "internalType": "struct MpAsset",
          "name": "assetIn",
          "type": "tuple"
        },
        {
          "internalType": "address",
          "name": "_assetIn",
          "type": "address"
        }
      ],
      "name": "getTransferredAmount",
      "outputs": [
        {
          "internalType": "uint256",
          "name": "amount",
          "type": "uint256"
        }
      ],
      "stateMutability": "view",
      "type": "function"
    },
    {
      "inputs": [],
      "name": "halfDeviationFeeRatio",
      "outputs": [
        {
          "internalType": "uint256",
          "name": "",
          "type": "uint256"
        }
      ],
      "stateMutability": "view",
      "type": "function"
    },
    {
      "inputs": [
        {
          "internalType": "address",
          "name": "spender",
          "type": "address"
        },
        {
          "internalType": "uint256",
          "name": "addedValue",
          "type": "uint256"
        }
      ],
      "name": "increaseAllowance",
      "outputs": [
        {
          "internalType": "bool",
          "name": "",
          "type": "bool"
        }
      ],
      "stateMutability": "nonpayable",
      "type": "function"
    },
    {
      "inputs": [
        {
          "internalType": "address",
          "name": "_asset",
          "type": "address"
        },
        {
          "internalType": "uint256",
          "name": "_share",
          "type": "uint256"
        },
        {
          "internalType": "address",
          "name": "_to",
          "type": "address"
        }
      ],
      "name": "mint",
      "outputs": [
        {
          "internalType": "uint256",
          "name": "_amountIn",
          "type": "uint256"
        },
        {
          "internalType": "uint256",
          "name": "refund",
          "type": "uint256"
        }
      ],
      "stateMutability": "nonpayable",
      "type": "function"
    },
    {
      "inputs": [],
      "name": "name",
      "outputs": [
        {
          "internalType": "string",
          "name": "",
          "type": "string"
        }
      ],
      "stateMutability": "view",
      "type": "function"
    },
    {
      "inputs": [],
      "name": "owner",
      "outputs": [
        {
          "internalType": "address",
          "name": "",
          "type": "address"
        }
      ],
      "stateMutability": "view",
      "type": "function"
    },
    {
      "inputs": [],
      "name": "percentsSource",
      "outputs": [
        {
          "internalType": "address",
          "name": "",
          "type": "address"
        }
      ],
      "stateMutability": "view",
      "type": "function"
    },
    {
      "inputs": [],
      "name": "priceSource",
      "outputs": [
        {
          "internalType": "address",
          "name": "",
          "type": "address"
        }
      ],
      "stateMutability": "view",
      "type": "function"
    },
    {
      "inputs": [],
      "name": "renounceOwnership",
      "outputs": [],
      "stateMutability": "nonpayable",
      "type": "function"
    },
    {
      "inputs": [
        {
          "internalType": "uint256",
          "name": "_baseBurnFee",
          "type": "uint256"
        }
      ],
      "name": "setBaseBurnFee",
      "outputs": [],
      "stateMutability": "nonpayable",
      "type": "function"
    },
    {
      "inputs": [
        {
          "internalType": "uint256",
          "name": "_baseMintFee",
          "type": "uint256"
        }
      ],
      "name": "setBaseMintFee",
      "outputs": [],
      "stateMutability": "nonpayable",
      "type": "function"
    },
    {
      "inputs": [
        {
          "internalType": "uint256",
          "name": "_baseTradeFee",
          "type": "uint256"
        }
      ],
      "name": "setBaseTradeFee",
      "outputs": [],
      "stateMutability": "nonpayable",
      "type": "function"
    },
    {
      "inputs": [
        {
          "internalType": "uint256",
          "name": "_depegBaseFeeRatio",
          "type": "uint256"
        }
      ],
      "name": "setDepegBaseFeeRatio",
      "outputs": [],
      "stateMutability": "nonpayable",
      "type": "function"
    },
    {
      "inputs": [
        {
          "internalType": "uint256",
          "name": "_deviationPercentLimit",
          "type": "uint256"
        }
      ],
      "name": "setDeviationPercentLimit",
      "outputs": [],
      "stateMutability": "nonpayable",
      "type": "function"
    },
    {
      "inputs": [
        {
          "internalType": "uint256",
          "name": "_halfDeviationFeeRatio",
          "type": "uint256"
        }
      ],
      "name": "setHalfDeviationFeeRatio",
      "outputs": [],
      "stateMutability": "nonpayable",
      "type": "function"
    },
    {
      "inputs": [
        {
          "internalType": "address",
          "name": "_percentsSource",
          "type": "address"
        }
      ],
      "name": "setPercentsSource",
      "outputs": [],
      "stateMutability": "nonpayable",
      "type": "function"
    },
    {
      "inputs": [
        {
          "internalType": "address",
          "name": "_priceSource",
          "type": "address"
        }
      ],
      "name": "setPriceSource",
      "outputs": [],
      "stateMutability": "nonpayable",
      "type": "function"
    },
    {
      "inputs": [
        {
          "internalType": "uint256",
          "name": "_share",
          "type": "uint256"
        },
        {
          "components": [
            {
              "internalType": "uint256",
              "name": "totalCurrentUsdAmount",
              "type": "uint256"
            },
            {
              "internalType": "uint256",
              "name": "totalAssetPercents",
              "type": "uint256"
            },
            {
              "internalType": "uint256",
              "name": "halfDeviationFeeRatio",
              "type": "uint256"
            },
            {
              "internalType": "uint256",
              "name": "deviationPercentLimit",
              "type": "uint256"
            },
            {
              "internalType": "uint256",
              "name": "operationBaseFee",
              "type": "uint256"
            },
            {
              "internalType": "uint256",
              "name": "userCashbackBalance",
              "type": "uint256"
            },
            {
              "internalType": "uint256",
              "name": "depegBaseFeeRatio",
              "type": "uint256"
            }
          ],
          "internalType": "struct MpContext",
          "name": "context",
          "type": "tuple"
        },
        {
          "components": [
            {
              "internalType": "uint256",
              "name": "quantity",
              "type": "uint256"
            },
            {
              "internalType": "uint256",
              "name": "price",
              "type": "uint256"
            },
            {
              "internalType": "uint256",
              "name": "collectedFees",
              "type": "uint256"
            },
            {
              "internalType": "uint256",
              "name": "collectedCashbacks",
              "type": "uint256"
            },
            {
              "internalType": "uint256",
              "name": "percent",
              "type": "uint256"
            }
          ],
          "internalType": "struct MpAsset",
          "name": "asset",
          "type": "tuple"
        },
        {
          "internalType": "uint256",
          "name": "virtualShare",
          "type": "uint256"
        }
      ],
      "name": "shareToAmount",
      "outputs": [
        {
          "internalType": "uint256",
          "name": "_amount",
          "type": "uint256"
        }
      ],
      "stateMutability": "view",
      "type": "function"
    },
    {
      "inputs": [
        {
          "internalType": "address",
          "name": "_assetIn",
          "type": "address"
        },
        {
          "internalType": "address",
          "name": "_assetOut",
          "type": "address"
        },
        {
          "internalType": "uint256",
          "name": "_share",
          "type": "uint256"
        },
        {
          "internalType": "address",
          "name": "_to",
          "type": "address"
        }
      ],
      "name": "swap",
      "outputs": [
        {
          "internalType": "uint256",
          "name": "_amountIn",
          "type": "uint256"
        },
        {
          "internalType": "uint256",
          "name": "_amountOut",
          "type": "uint256"
        },
        {
          "internalType": "uint256",
          "name": "refundIn",
          "type": "uint256"
        },
        {
          "internalType": "uint256",
          "name": "refundOut",
          "type": "uint256"
        }
      ],
      "stateMutability": "nonpayable",
      "type": "function"
    },
    {
      "inputs": [],
      "name": "symbol",
      "outputs": [
        {
          "internalType": "string",
          "name": "",
          "type": "string"
        }
      ],
      "stateMutability": "view",
      "type": "function"
    },
    {
      "inputs": [],
      "name": "totalAssetPercents",
      "outputs": [
        {
          "internalType": "uint256",
          "name": "",
          "type": "uint256"
        }
      ],
      "stateMutability": "view",
      "type": "function"
    },
    {
      "inputs": [],
      "name": "totalCurrentUsdAmount",
      "outputs": [
        {
          "internalType": "uint256",
          "name": "",
          "type": "uint256"
        }
      ],
      "stateMutability": "view",
      "type": "function"
    },
    {
      "inputs": [],
      "name": "totalSupply",
      "outputs": [
        {
          "internalType": "uint256",
          "name": "",
          "type": "uint256"
        }
      ],
      "stateMutability": "view",
      "type": "function"
    },
    {
      "inputs": [
        {
          "internalType": "address",
          "name": "to",
          "type": "address"
        },
        {
          "internalType": "uint256",
          "name": "amount",
          "type": "uint256"
        }
      ],
      "name": "transfer",
      "outputs": [
        {
          "internalType": "bool",
          "name": "",
          "type": "bool"
        }
      ],
      "stateMutability": "nonpayable",
      "type": "function"
    },
    {
      "inputs": [
        {
          "internalType": "address",
          "name": "from",
          "type": "address"
        },
        {
          "internalType": "address",
          "name": "to",
          "type": "address"
        },
        {
          "internalType": "uint256",
          "name": "amount",
          "type": "uint256"
        }
      ],
      "name": "transferFrom",
      "outputs": [
        {
          "internalType": "bool",
          "name": "",
          "type": "bool"
        }
      ],
      "stateMutability": "nonpayable",
      "type": "function"
    },
    {
      "inputs": [
        {
          "internalType": "address",
          "name": "newOwner",
          "type": "address"
        }
      ],
      "name": "transferOwnership",
      "outputs": [],
      "stateMutability": "nonpayable",
      "type": "function"
    },
    {
      "inputs": [
        {
          "internalType": "address",
          "name": "_asset",
          "type": "address"
        },
        {
          "internalType": "uint256",
          "name": "_price",
          "type": "uint256"
        }
      ],
      "name": "updatePrice",
      "outputs": [],
      "stateMutability": "nonpayable",
      "type": "function"
    },
    {
      "inputs": [
        {
          "internalType": "address",
          "name": "_asset",
          "type": "address"
        },
        {
          "internalType": "uint256",
          "name": "_percent",
          "type": "uint256"
        }
      ],
      "name": "updateTargetShare",
      "outputs": [],
      "stateMutability": "nonpayable",
      "type": "function"
    },
    {
      "inputs": [
        {
          "internalType": "address",
          "name": "_assetAddress",
          "type": "address"
        },
        {
          "internalType": "address",
          "name": "_to",
          "type": "address"
        }
      ],
      "name": "withdrawCollectedFees",
      "outputs": [],
      "stateMutability": "nonpayable",
      "type": "function"
    }
  ],
  "bytecode": {
    "object": "0x60806040523480156200001157600080fd5b5060405162003918380380620039188339810160408190526200003491620001b5565b81816003620000448382620002ae565b506004620000538282620002ae565b505050620000706200006a6200009a60201b60201c565b6200009e565b505060108054336001600160a01b031991821681179092556011805490911690911790556200037a565b3390565b600580546001600160a01b038381166001600160a01b0319831681179093556040519116919082907f8be0079c531659141344cd1fd0a4f28419497f9722a3daafe3b4186f6b6457e090600090a35050565b634e487b7160e01b600052604160045260246000fd5b600082601f8301126200011857600080fd5b81516001600160401b0380821115620001355762000135620000f0565b604051601f8301601f19908116603f01168101908282118183101715620001605762000160620000f0565b816040528381526020925086838588010111156200017d57600080fd5b600091505b83821015620001a1578582018301518183018401529082019062000182565b600093810190920192909252949350505050565b60008060408385031215620001c957600080fd5b82516001600160401b0380821115620001e157600080fd5b620001ef8683870162000106565b935060208501519150808211156200020657600080fd5b50620002158582860162000106565b9150509250929050565b600181811c908216806200023457607f821691505b6020821081036200025557634e487b7160e01b600052602260045260246000fd5b50919050565b601f821115620002a957600081815260208120601f850160051c81016020861015620002845750805b601f850160051c820191505b81811015620002a55782815560010162000290565b5050505b505050565b81516001600160401b03811115620002ca57620002ca620000f0565b620002e281620002db84546200021f565b846200025b565b602080601f8311600181146200031a5760008415620003015750858301515b600019600386901b1c1916600185901b178555620002a5565b600085815260208120601f198616915b828110156200034b578886015182559484019460019091019084016200032a565b50858210156200036a5787850151600019600388901b60f8161c191681555b5050505050600190811b01905550565b61358e806200038a6000396000f3fe608060405234801561001057600080fd5b50600436106103205760003560e01c806371bff8c5116101a7578063bda53107116100ee578063ea2347c811610097578063f2fde38b11610071578063f2fde38b146107e3578063f474c780146107f6578063f70210ea1461080957600080fd5b8063ea2347c81461076c578063ecc777bc14610775578063f11b81881461077e57600080fd5b8063e165677d116100c8578063e165677d1461073d578063e2ceddac14610746578063e68defac1461075957600080fd5b8063bda53107146106dc578063dd62ed3e146106ef578063dd68d8db1461073557600080fd5b806395d89b4111610150578063a9059cbb1161012a578063a9059cbb14610696578063b3f00674146106a9578063b8ce670d146106c957600080fd5b806395d89b41146106685780639f7a417114610670578063a457c2d71461068357600080fd5b8063887c70dd11610181578063887c70dd1461061b5780638da5cb5b1461063b578063918f86741461065957600080fd5b806371bff8c5146105a0578063742978da146105b3578063753045201461060857600080fd5b80633429d5221161026b5780635edf79f4116102145780636e81221c116101ee5780636e81221c1461052f57806370a0823114610562578063715018a61461059857600080fd5b80635edf79f414610501578063677122a4146105145780636ddca2101461052757600080fd5b806342afdb271161024557806342afdb27146104d2578063457972de146104e5578063582bee14146104f857600080fd5b80633429d5221461045857806339509351146104b65780633d463584146104c957600080fd5b806318160ddd116102cd57806325b5c6e3116102a757806325b5c6e3146104235780632b77dc0314610436578063313ce5671461044957600080fd5b806318160ddd146103c357806320531bc9146103cb57806323b872dd1461041057600080fd5b80630d18d036116102fe5780630d18d0361461037d5780630d4d151314610386578063132bc386146103ae57600080fd5b806306fdde031461032557806307ebdb2e14610343578063095ea7b31461035a575b600080fd5b61032d610812565b60405161033a919061306b565b60405180910390f35b61034c600e5481565b60405190815260200161033a565b61036d610368366004613100565b6108a4565b604051901515815260200161033a565b61034c600b5481565b61039961039436600461312a565b6108be565b6040805192835260208301919091520161033a565b6103c16103bc366004613100565b610c5b565b005b60025461034c565b6010546103eb9073ffffffffffffffffffffffffffffffffffffffff1681565b60405173ffffffffffffffffffffffffffffffffffffffff909116815260200161033a565b61036d61041e366004613166565b610dd3565b6103c16104313660046131a2565b610df9565b6103c16104443660046131bb565b610e3d565b6040516012815260200161033a565b610460610eb8565b60405161033a9190600060e082019050825182526020830151602083015260408301516040830152606083015160608301526080830151608083015260a083015160a083015260c083015160c083015292915050565b61036d6104c4366004613100565b610f08565b61034c60085481565b6103c16104e03660046131a2565b610f54565b6103c16104f3366004613100565b610f91565b61034c60095481565b6103c161050f3660046131a2565b61113f565b61034c6105223660046132bd565b61117c565b6104606111d4565b61054261053d366004613378565b61121f565b60408051948552602085019390935291830152606082015260800161033a565b61034c6105703660046131bb565b73ffffffffffffffffffffffffffffffffffffffff1660009081526020819052604090205490565b6103c16117af565b6103c16105ae3660046131a2565b6117c3565b6105c66105c13660046131bb565b611800565b60405161033a9190600060a082019050825182526020830151602083015260408301516040830152606083015160608301526080830151608083015292915050565b6103c16106163660046133c5565b611897565b6011546103eb9073ffffffffffffffffffffffffffffffffffffffff1681565b60055473ffffffffffffffffffffffffffffffffffffffff166103eb565b61034c670de0b6b3a764000081565b61032d6119aa565b6103c161067e3660046131a2565b6119b9565b61036d610691366004613100565b6119f6565b61036d6106a4366004613100565b611ab8565b600f546103eb9073ffffffffffffffffffffffffffffffffffffffff1681565b6103996106d736600461312a565b611ac6565b6103c16106ea3660046131bb565b611dca565b61034c6106fd3660046133c5565b73ffffffffffffffffffffffffffffffffffffffff918216600090815260016020908152604080832093909416825291909152205490565b610460611e45565b61034c600a5481565b61034c6107543660046133f8565b611e90565b6104606107673660046131a2565b611f4d565b61034c600d5481565b61034c60075481565b6107bb61078c3660046131bb565b600660205260009081526040902080546001820154600283015460038401546004909401549293919290919085565b604080519586526020860194909452928401919091526060830152608082015260a00161033a565b6103c16107f13660046131bb565b611fd2565b6103c16108043660046131a2565b61206f565b61034c600c5481565b60606003805461082190613423565b80601f016020809104026020016040519081016040528092919081815260200182805461084d90613423565b801561089a5780601f1061086f5761010080835404028352916020019161089a565b820191906000526020600020905b81548152906001019060200180831161087d57829003601f168201915b5050505050905090565b6000336108b28185856120ac565b60019150505b92915050565b600080836000036109165760405162461bcd60e51b815260206004820152601560248201527f4d554c5449504f4f4c3a207a65726f207368617265000000000000000000000060448201526064015b60405180910390fd5b73ffffffffffffffffffffffffffffffffffffffff85166000908152600660209081526040808320815160a0810183528154815260018201549381018490526002820154928101929092526003810154606083015260040154608082015291036109c25760405162461bcd60e51b815260206004820152601560248201527f4d554c5449504f4f4c3a207a65726f2070726963650000000000000000000000604482015260640161090d565b8060800151600003610a165760405162461bcd60e51b815260206004820152601760248201527f4d554c5449504f4f4c3a207a65726f2070657263656e74000000000000000000604482015260640161090d565b6000610a23600c54611f4d565b90506000610a318389611e90565b90506000610a3e60025490565b600003610a4b5781610a58565b610a58888486600061117c565b9050610a6583858361222c565b955081861115610add5760405162461bcd60e51b815260206004820152602160248201527f4d554c5449504f4f4c3a206d696e7420616d6f756e7420696e2065786565646560448201527f6400000000000000000000000000000000000000000000000000000000000000606482015260840161090d565b825160075560a08301519450600085610af688856134a5565b610b0091906134b8565b9050610b0c888a6125c7565b73ffffffffffffffffffffffffffffffffffffffff8a16600090815260066020908152604091829020875181559087015160018201559086015160028201556060860151600382015560808601516004909101558015610c01576040517fa9059cbb00000000000000000000000000000000000000000000000000000000815273ffffffffffffffffffffffffffffffffffffffff8981166004830152602482018390528b169063a9059cbb906044016020604051808303816000875af1158015610bdb573d6000803e3d6000fd5b505050506040513d601f19601f82011682018060405250810190610bff91906134cb565b505b845160405190815273ffffffffffffffffffffffffffffffffffffffff8b16907ff1adebc72eb4ba11828091d3fa926b67e364f2407a4eea38c090e350290cce989060200160405180910390a25050505050935093915050565b60115473ffffffffffffffffffffffffffffffffffffffff163314610cc25760405162461bcd60e51b815260206004820152601f60248201527f4d554c5449504f4f4c3a206f6e6c792070657263656e74732073657474657200604482015260640161090d565b73ffffffffffffffffffffffffffffffffffffffff8216600090815260066020908152604091829020825160a0810184528154815260018201549281019290925260028101549282019290925260038201546060820152600490910154608082018190526008548391610d34916134a5565b610d3e91906134b8565b6008556080810182815273ffffffffffffffffffffffffffffffffffffffff8416600081815260066020908152604091829020855181558186015160018201558286015160028201556060860151600382015593516004909401939093555184815290917feddaf9a054fe5ebd155e55ca4e1442c849a15fcdb5ceae0e5cc41338e7967ba891015b60405180910390a2505050565b600033610de18582856126a0565b610dec85858561275d565b60019150505b9392505050565b610e0161297e565b600c8190556040518181527faa3e0a46af827fa4016b300eeeb164f0ba70f8cd67066aac8cfe0d139e3fed3c906020015b60405180910390a150565b610e4561297e565b601180547fffffffffffffffffffffffff00000000000000000000000000000000000000001673ffffffffffffffffffffffffffffffffffffffff83169081179091556040519081527f5e55141d8a32e5d91733243e0f44e7346cb25138cfdc5b0e888bb6d9cb75f98b90602001610e32565b610ef86040518060e00160405280600081526020016000815260200160008152602001600081526020016000815260200160008152602001600081525090565b610f03600d54611f4d565b905090565b33600081815260016020908152604080832073ffffffffffffffffffffffffffffffffffffffff871684529091528120549091906108b29082908690610f4f9087906134b8565b6120ac565b610f5c61297e565b600b8190556040518181527fd52e2e0d2193bde49ac3490f3950077ccdcb07356f5b7d3b0698846de6fb99af90602001610e32565b60105473ffffffffffffffffffffffffffffffffffffffff163314610ff85760405162461bcd60e51b815260206004820152601c60248201527f4d554c5449504f4f4c3a206f6e6c792070726963652073657474657200000000604482015260640161090d565b73ffffffffffffffffffffffffffffffffffffffff8216600090815260066020908152604091829020825160a081018452815480825260018301549382019390935260028201549381019390935260038101546060840152600401546080830152670de0b6b3a76400009061106e9084906134ed565b6110789190613504565b60208201518251670de0b6b3a764000091611092916134ed565b61109c9190613504565b6007546110a991906134a5565b6110b391906134b8565b600755602081810183815273ffffffffffffffffffffffffffffffffffffffff85166000818152600684526040908190208551815592516001840155808501516002840155606085015160038401556080850151600490930192909255905184815290917fe36d0063be3f369ddabba6d2343d37d5dff081050a7be61867fc42cfdeda85f59101610dc6565b61114761297e565b60098190556040518181527fbf579fd018eba5b424b00da7c3ace7787a8925ad1ff435a6ae57f0f3be66b02c90602001610e32565b600082602001518261118d60025490565b61119791906134b8565b8551670de0b6b3a7640000906111ad90896134ed565b6111b791906134ed565b6111c19190613504565b6111cb9190613504565b95945050505050565b6112146040518060e00160405280600081526020016000815260200160008152602001600081526020016000815260200160008152602001600081525090565b610f03600c54611f4d565b6000806000808673ffffffffffffffffffffffffffffffffffffffff168873ffffffffffffffffffffffffffffffffffffffff16036112a05760405162461bcd60e51b815260206004820152601660248201527f4d554c5449504f4f4c3a2073616d652061737365747300000000000000000000604482015260640161090d565b6000600660008a73ffffffffffffffffffffffffffffffffffffffff1673ffffffffffffffffffffffffffffffffffffffff1681526020019081526020016000206040518060a00160405290816000820154815260200160018201548152602001600282015481526020016003820154815260200160048201548152505090506000600660008a73ffffffffffffffffffffffffffffffffffffffff1673ffffffffffffffffffffffffffffffffffffffff1681526020019081526020016000206040518060a001604052908160008201548152602001600182015481526020016002820154815260200160038201548152602001600482015481525050905060006113ad600e54611f4d565b905060006113bb848d611e90565b905060006113cc8b8487600061117c565b90506113d983868361222c565b98508189111561142b5760405162461bcd60e51b815260206004820152601c60248201527f4d554c5449504f4f4c3a20616d6f756e7420696e206578656564656400000000604482015260640161090d565b5060a08201805160009182905296506114468b84868261117c565b90506114538385836129e5565b97508260a00151955082600001516007819055505083600660008e73ffffffffffffffffffffffffffffffffffffffff1673ffffffffffffffffffffffffffffffffffffffff168152602001908152602001600020600082015181600001556020820151816001015560408201518160020155606082015181600301556080820151816004015590505082600660008d73ffffffffffffffffffffffffffffffffffffffff1673ffffffffffffffffffffffffffffffffffffffff16815260200190815260200160002060008201518160000155602082015181600101556040820151816002015560608201518160030155608082015181600401559050506000858861156091906134b8565b11156116235773ffffffffffffffffffffffffffffffffffffffff8b1663a9059cbb8a61158d888b6134b8565b6040517fffffffff0000000000000000000000000000000000000000000000000000000060e085901b16815273ffffffffffffffffffffffffffffffffffffffff909216600483015260248201526044016020604051808303816000875af11580156115fd573d6000803e3d6000fd5b505050506040513d601f19601f8201168201806040525081019061162191906134cb565b505b600061162f89836134a5565b61163990886134b8565b11156117065773ffffffffffffffffffffffffffffffffffffffff8c1663a9059cbb8a6116668b856134a5565b611670908a6134b8565b6040517fffffffff0000000000000000000000000000000000000000000000000000000060e085901b16815273ffffffffffffffffffffffffffffffffffffffff909216600483015260248201526044016020604051808303816000875af11580156116e0573d6000803e3d6000fd5b505050506040513d601f19601f8201168201806040525081019061170491906134cb565b505b835160405190815273ffffffffffffffffffffffffffffffffffffffff8d16907ff1adebc72eb4ba11828091d3fa926b67e364f2407a4eea38c090e350290cce989060200160405180910390a2825160405190815273ffffffffffffffffffffffffffffffffffffffff8c16907ff1adebc72eb4ba11828091d3fa926b67e364f2407a4eea38c090e350290cce989060200160405180910390a250505050945094509450949050565b6117b761297e565b6117c16000612e6c565b565b6117cb61297e565b600a8190556040518181527fc260294de91f63c2935a5b9f966443a3ff51b35068e16661d55211504de3d86490602001610e32565b6118326040518060a0016040528060008152602001600081526020016000815260200160008152602001600081525090565b5073ffffffffffffffffffffffffffffffffffffffff16600090815260066020908152604091829020825160a0810184528154815260018201549281019290925260028101549282019290925260038201546060820152600490910154608082015290565b61189f61297e565b73ffffffffffffffffffffffffffffffffffffffff82811660008181526006602052604080822060028101805493905590517fa9059cbb0000000000000000000000000000000000000000000000000000000081529385166004850152602484018290529290919063a9059cbb906044016020604051808303816000875af115801561192f573d6000803e3d6000fd5b505050506040513d601f19601f8201168201806040525081019061195391906134cb565b508373ffffffffffffffffffffffffffffffffffffffff167f0ff8fb19717c1e3aa6ab438071b1fab0a6143353cd8b5224741cc0656cf5305b8260405161199c91815260200190565b60405180910390a250505050565b60606004805461082190613423565b6119c161297e565b600d8190556040518181527f8779c4ca044dfeafa1290475dd75fe21d2256f66f4a067b1dcf62dab5a7729ea90602001610e32565b33600081815260016020908152604080832073ffffffffffffffffffffffffffffffffffffffff8716845290915281205490919083811015611aa05760405162461bcd60e51b815260206004820152602560248201527f45524332303a2064656372656173656420616c6c6f77616e63652062656c6f7760448201527f207a65726f000000000000000000000000000000000000000000000000000000606482015260840161090d565b611aad82868684036120ac565b506001949350505050565b6000336108b281858561275d565b60008083600003611b195760405162461bcd60e51b815260206004820152601560248201527f4d554c5449504f4f4c3a207a65726f2073686172650000000000000000000000604482015260640161090d565b73ffffffffffffffffffffffffffffffffffffffff85166000908152600660209081526040808320815160a081018352815481526001820154938101849052600282015492810192909252600381015460608301526004015460808201529103611bc55760405162461bcd60e51b815260206004820152601560248201527f4d554c5449504f4f4c3a207a65726f2070726963650000000000000000000000604482015260640161090d565b8060800151600003611c195760405162461bcd60e51b815260206004820152601760248201527f4d554c5449504f4f4c3a207a65726f2070657263656e74000000000000000000604482015260640161090d565b6000611c26600d54611f4d565b90506000611c37878385600061117c565b9050611c448284836129e5565b825160075560a08301519095509350611c5d3088612ee3565b73ffffffffffffffffffffffffffffffffffffffff88166000818152600660209081526040918290208651815590860151600182015590850151600282015560608501516003820155608085015160049091015563a9059cbb87611cc187896134b8565b6040517fffffffff0000000000000000000000000000000000000000000000000000000060e085901b16815273ffffffffffffffffffffffffffffffffffffffff909216600483015260248201526044016020604051808303816000875af1158015611d31573d6000803e3d6000fd5b505050506040513d601f19601f82011682018060405250810190611d5591906134cb565b5030600081815260208190526040902054611d729190889061275d565b825160405190815273ffffffffffffffffffffffffffffffffffffffff8916907ff1adebc72eb4ba11828091d3fa926b67e364f2407a4eea38c090e350290cce989060200160405180910390a2505050935093915050565b611dd261297e565b601080547fffffffffffffffffffffffff00000000000000000000000000000000000000001673ffffffffffffffffffffffffffffffffffffffff83169081179091556040519081527f0be4a9fa8ca97505525c993411db321f6e9aa3174f2cefa1884f17025b8eaabc90602001610e32565b611e856040518060e00160405280600081526020016000815260200160008152602001600081526020016000815260200160008152602001600081525090565b610f03600e54611f4d565b6060820151604080840151845191517f70a08231000000000000000000000000000000000000000000000000000000008152306004820152600093929073ffffffffffffffffffffffffffffffffffffffff8616906370a0823190602401602060405180830381865afa158015611f0b573d6000803e3d6000fd5b505050506040513d601f19601f82011682018060405250810190611f2f919061353f565b611f3991906134a5565b611f4391906134a5565b610df291906134a5565b611f8d6040518060e00160405280600081526020016000815260200160008152602001600081526020016000815260200160008152602001600081525090565b6040518060e00160405280600754815260200160085481526020016009548152602001600a54815260200183815260200160008152602001600b548152509050919050565b611fda61297e565b73ffffffffffffffffffffffffffffffffffffffff81166120635760405162461bcd60e51b815260206004820152602660248201527f4f776e61626c653a206e6577206f776e657220697320746865207a65726f206160448201527f6464726573730000000000000000000000000000000000000000000000000000606482015260840161090d565b61206c81612e6c565b50565b61207761297e565b600e8190556040518181527f14a9aef9e0be2aa631df9028cf396b63ced8fe9e2fe7e9062d29325dca5f925690602001610e32565b73ffffffffffffffffffffffffffffffffffffffff83166121345760405162461bcd60e51b8152602060048201526024808201527f45524332303a20617070726f76652066726f6d20746865207a65726f2061646460448201527f7265737300000000000000000000000000000000000000000000000000000000606482015260840161090d565b73ffffffffffffffffffffffffffffffffffffffff82166121bd5760405162461bcd60e51b815260206004820152602260248201527f45524332303a20617070726f766520746f20746865207a65726f20616464726560448201527f7373000000000000000000000000000000000000000000000000000000000000606482015260840161090d565b73ffffffffffffffffffffffffffffffffffffffff83811660008181526001602090815260408083209487168084529482529182902085905590518481527f8c5be1e5ebec7d5bd14f71427d1e84f3dd0314c0f7b2291e5b200ac8c7c3b92591015b60405180910390a3505050565b8251600090810361227857670de0b6b3a764000083602001518361225091906134ed565b61225a9190613504565b845282518290849061226d9083906134b8565b905250819050610df2565b8351602084015184516000929161228e916134ed565b6122989190613504565b90506000670de0b6b3a76400008560200151856122b591906134ed565b6122bf9190613504565b86516122cb91906134b8565b602086015186516122dd9087906134b8565b6122e791906134ed565b6122f19190613504565b905060008660200151670de0b6b3a7640000876080015161231291906134ed565b61231c9190613504565b905060008183116123365761233183836134a5565b612340565b61234082846134a5565b9050600082851161235a5761235585846134a5565b612364565b61236483866134a5565b90508082116124055780156123c95760008161238084826134a5565b8a6060015161238f91906134ed565b6123999190613504565b905080896060018181516123ad91906134a5565b90525060a08a0180518291906123c49083906134b8565b905250505b670de0b6b3a76400008960800151670de0b6b3a76400006123ea91906134b8565b6123f490896134ed565b6123fe9190613504565b955061253a565b886060015182106124585760405162461bcd60e51b815260206004820152601d60248201527f4d554c5449504f4f4c3a20646576696174696f6e206f766572666c6f77000000604482015260640161090d565b6000828a6060015161246a91906134a5565b8a6060015189858d6040015161248091906134ed565b61248a91906134ed565b6124949190613504565b61249e9190613504565b90506000670de0b6b3a7640000828c60c001516124bb91906134ed565b6124c59190613504565b90506124d181836134a5565b8a6060018181516124e291906134b8565b90525060408a0180518291906124f99083906134b8565b90525060808b01518290670de0b6b3a76400009061251790826134b8565b612521908c6134ed565b61252b9190613504565b61253591906134b8565b975050505b868860000181815161254c91906134b8565b9052506020880151670de0b6b3a76400009061256890896134ed565b6125729190613504565b89518a906125819083906134b8565b9052506080890151670de0b6b3a76400009061259d90896134ed565b6125a79190613504565b886040018181516125b891906134b8565b90525050505050509392505050565b73ffffffffffffffffffffffffffffffffffffffff821661262a5760405162461bcd60e51b815260206004820152601f60248201527f45524332303a206d696e7420746f20746865207a65726f206164647265737300604482015260640161090d565b806002600082825461263c91906134b8565b909155505073ffffffffffffffffffffffffffffffffffffffff8216600081815260208181526040808320805486019055518481527fddf252ad1be2c89b69c2b068fc378daa952ba7f163c4a11628f55a4df523b3ef910160405180910390a35050565b73ffffffffffffffffffffffffffffffffffffffff8381166000908152600160209081526040808320938616835292905220547fffffffffffffffffffffffffffffffffffffffffffffffffffffffffffffffff8114612757578181101561274a5760405162461bcd60e51b815260206004820152601d60248201527f45524332303a20696e73756666696369656e7420616c6c6f77616e6365000000604482015260640161090d565b61275784848484036120ac565b50505050565b73ffffffffffffffffffffffffffffffffffffffff83166127e65760405162461bcd60e51b815260206004820152602560248201527f45524332303a207472616e736665722066726f6d20746865207a65726f20616460448201527f6472657373000000000000000000000000000000000000000000000000000000606482015260840161090d565b73ffffffffffffffffffffffffffffffffffffffff821661286f5760405162461bcd60e51b815260206004820152602360248201527f45524332303a207472616e7366657220746f20746865207a65726f206164647260448201527f6573730000000000000000000000000000000000000000000000000000000000606482015260840161090d565b73ffffffffffffffffffffffffffffffffffffffff83166000908152602081905260409020548181101561290b5760405162461bcd60e51b815260206004820152602660248201527f45524332303a207472616e7366657220616d6f756e742065786365656473206260448201527f616c616e63650000000000000000000000000000000000000000000000000000606482015260840161090d565b73ffffffffffffffffffffffffffffffffffffffff848116600081815260208181526040808320878703905593871680835291849020805487019055925185815290927fddf252ad1be2c89b69c2b068fc378daa952ba7f163c4a11628f55a4df523b3ef910160405180910390a3612757565b60055473ffffffffffffffffffffffffffffffffffffffff1633146117c15760405162461bcd60e51b815260206004820181905260248201527f4f776e61626c653a2063616c6c6572206973206e6f7420746865206f776e6572604482015260640161090d565b8151600090821115612a5f5760405162461bcd60e51b815260206004820152602260248201527f4d554c5449504f4f4c3a206173736574207175616e746974792065786365656460448201527f6564000000000000000000000000000000000000000000000000000000000000606482015260840161090d565b670de0b6b3a7640000836020015183612a7891906134ed565b612a829190613504565b8451612a8e91906134a5565b15612dae5783516020840151845160009291612aa9916134ed565b612ab39190613504565b90506000670de0b6b3a7640000856020015185612ad091906134ed565b612ada9190613504565b8651612ae691906134a5565b60208601518651612af89087906134a5565b612b0291906134ed565b612b0c9190613504565b905060008660200151670de0b6b3a76400008760800151612b2d91906134ed565b612b379190613504565b90506000818311612b5157612b4c83836134a5565b612b5b565b612b5b82846134a5565b90506000828511612b7557612b7085846134a5565b612b7f565b612b7f83866134a5565b9050808211612c1e578015612be457600081612b9b84826134a5565b8a60600151612baa91906134ed565b612bb49190613504565b90508089606001818151612bc891906134a5565b90525060a08a018051829190612bdf9083906134b8565b905250505b6080890151612bfb90670de0b6b3a76400006134b8565b612c0d670de0b6b3a7640000896134ed565b612c179190613504565b9550612da4565b88606001518210612c715760405162461bcd60e51b815260206004820152601d60248201527f4d554c5449504f4f4c3a20646576696174696f6e206f766572666c6f77000000604482015260640161090d565b6000828a60600151612c8391906134a5565b8a60600151670de0b6b3a7640000858d60400151612ca191906134ed565b612cab91906134ed565b612cb59190613504565b612cbf9190613504565b60808b0151909150612cd982670de0b6b3a76400006134b8565b612ce391906134b8565b612cf5670de0b6b3a76400008a6134ed565b612cff9190613504565b96506000670de0b6b3a76400008b60800151670de0b6b3a7640000612d2491906134b8565b612d2e908a6134ed565b612d389190613504565b612d42908a6134a5565b90506000670de0b6b3a7640000828d60c00151612d5f91906134ed565b612d699190613504565b9050612d7581836134a5565b8b606001818151612d8691906134b8565b90525060408b018051829190612d9d9083906134b8565b9052505050505b5050505050612de4565b6080840151612dc590670de0b6b3a76400006134b8565b612dd7670de0b6b3a7640000846134ed565b612de19190613504565b90505b8183600001818151612df691906134a5565b9052506020830151670de0b6b3a764000090612e1290846134ed565b612e1c9190613504565b84518590612e2b9083906134a5565b9052506080840151670de0b6b3a764000090612e4790836134ed565b612e519190613504565b83604001818151612e6291906134b8565b9052509392505050565b6005805473ffffffffffffffffffffffffffffffffffffffff8381167fffffffffffffffffffffffff0000000000000000000000000000000000000000831681179093556040519116919082907f8be0079c531659141344cd1fd0a4f28419497f9722a3daafe3b4186f6b6457e090600090a35050565b73ffffffffffffffffffffffffffffffffffffffff8216612f6c5760405162461bcd60e51b815260206004820152602160248201527f45524332303a206275726e2066726f6d20746865207a65726f2061646472657360448201527f7300000000000000000000000000000000000000000000000000000000000000606482015260840161090d565b73ffffffffffffffffffffffffffffffffffffffff8216600090815260208190526040902054818110156130085760405162461bcd60e51b815260206004820152602260248201527f45524332303a206275726e20616d6f756e7420657863656564732062616c616e60448201527f6365000000000000000000000000000000000000000000000000000000000000606482015260840161090d565b73ffffffffffffffffffffffffffffffffffffffff83166000818152602081815260408083208686039055600280548790039055518581529192917fddf252ad1be2c89b69c2b068fc378daa952ba7f163c4a11628f55a4df523b3ef910161221f565b600060208083528351808285015260005b818110156130985785810183015185820160400152820161307c565b5060006040828601015260407fffffffffffffffffffffffffffffffffffffffffffffffffffffffffffffffe0601f8301168501019250505092915050565b803573ffffffffffffffffffffffffffffffffffffffff811681146130fb57600080fd5b919050565b6000806040838503121561311357600080fd5b61311c836130d7565b946020939093013593505050565b60008060006060848603121561313f57600080fd5b613148846130d7565b92506020840135915061315d604085016130d7565b90509250925092565b60008060006060848603121561317b57600080fd5b613184846130d7565b9250613192602085016130d7565b9150604084013590509250925092565b6000602082840312156131b457600080fd5b5035919050565b6000602082840312156131cd57600080fd5b610df2826130d7565b60405160e0810167ffffffffffffffff81118282101715613220577f4e487b7100000000000000000000000000000000000000000000000000000000600052604160045260246000fd5b60405290565b600060a0828403121561323857600080fd5b60405160a0810181811067ffffffffffffffff82111715613282577f4e487b7100000000000000000000000000000000000000000000000000000000600052604160045260246000fd5b806040525080915082358152602083013560208201526040830135604082015260608301356060820152608083013560808201525092915050565b6000806000808486036101c08112156132d557600080fd5b8535945060e07fffffffffffffffffffffffffffffffffffffffffffffffffffffffffffffffe08201121561330957600080fd5b506133126131d6565b6020860135815260408601356020820152606086013560408201526080860135606082015260a0860135608082015260c086013560a082015260e086013560c082015280935050613367866101008701613226565b939692955092936101a00135925050565b6000806000806080858703121561338e57600080fd5b613397856130d7565b93506133a5602086016130d7565b9250604085013591506133ba606086016130d7565b905092959194509250565b600080604083850312156133d857600080fd5b6133e1836130d7565b91506133ef602084016130d7565b90509250929050565b60008060c0838503121561340b57600080fd5b6134158484613226565b91506133ef60a084016130d7565b600181811c9082168061343757607f821691505b602082108103613470577f4e487b7100000000000000000000000000000000000000000000000000000000600052602260045260246000fd5b50919050565b7f4e487b7100000000000000000000000000000000000000000000000000000000600052601160045260246000fd5b818103818111156108b8576108b8613476565b808201808211156108b8576108b8613476565b6000602082840312156134dd57600080fd5b81518015158114610df257600080fd5b80820281158282048414176108b8576108b8613476565b60008261353a577f4e487b7100000000000000000000000000000000000000000000000000000000600052601260045260246000fd5b500490565b60006020828403121561355157600080fd5b505191905056fea264697066735822122036b447bae0b493cd0e20b502fc3edb7bf249edb4942f6df57227438383f377a764736f6c63430008150033",
    "linkReferences": {}
  },
  "methodIdentifiers": {
    "DENOMINATOR()": "918f8674",
    "allowance(address,address)": "dd62ed3e",
    "approve(address,uint256)": "095ea7b3",
    "assets(address)": "f11b8188",
    "balanceOf(address)": "70a08231",
    "baseBurnFee()": "ea2347c8",
    "baseMintFee()": "f70210ea",
    "baseTradeFee()": "07ebdb2e",
    "burn(address,uint256,address)": "b8ce670d",
    "decimals()": "313ce567",
    "decreaseAllowance(address,uint256)": "a457c2d7",
    "depegBaseFeeRatio()": "0d18d036",
    "deviationPercentLimit()": "e165677d",
    "feeReceiver()": "b3f00674",
    "getAssets(address)": "742978da",
    "getBurnContext()": "3429d522",
    "getContext(uint256)": "e68defac",
    "getMintContext()": "6ddca210",
    "getTradeContext()": "dd68d8db",
    "getTransferredAmount((uint256,uint256,uint256,uint256,uint256),address)": "e2ceddac",
    "halfDeviationFeeRatio()": "582bee14",
    "increaseAllowance(address,uint256)": "39509351",
    "mint(address,uint256,address)": "0d4d1513",
    "name()": "06fdde03",
    "owner()": "8da5cb5b",
    "percentsSource()": "887c70dd",
    "priceSource()": "20531bc9",
    "renounceOwnership()": "715018a6",
    "setBaseBurnFee(uint256)": "9f7a4171",
    "setBaseMintFee(uint256)": "25b5c6e3",
    "setBaseTradeFee(uint256)": "f474c780",
    "setDepegBaseFeeRatio(uint256)": "42afdb27",
    "setDeviationPercentLimit(uint256)": "71bff8c5",
    "setHalfDeviationFeeRatio(uint256)": "5edf79f4",
    "setPercentsSource(address)": "2b77dc03",
    "setPriceSource(address)": "bda53107",
    "shareToAmount(uint256,(uint256,uint256,uint256,uint256,uint256,uint256,uint256),(uint256,uint256,uint256,uint256,uint256),uint256)": "677122a4",
    "swap(address,address,uint256,address)": "6e81221c",
    "symbol()": "95d89b41",
    "totalAssetPercents()": "3d463584",
    "totalCurrentUsdAmount()": "ecc777bc",
    "totalSupply()": "18160ddd",
    "transfer(address,uint256)": "a9059cbb",
    "transferFrom(address,address,uint256)": "23b872dd",
    "transferOwnership(address)": "f2fde38b",
    "updatePrice(address,uint256)": "457972de",
    "updateTargetShare(address,uint256)": "132bc386",
    "withdrawCollectedFees(address,address)": "75304520"
  },
  "id": 48
}